:020000040000fa
:080000000002040000000000f2
:020000040000fa
:040008004e060000a0
:020000040000fa
:04000c003e030000af
:020000040000fa
:040010008003000069
:020000040000fa
:040014005e03000087
:020000040000fa
:04001800a003000041
:020000040000fa
:04001c004e0600008c
:020000040000fa
:040020004e06000088
:020000040000fa
:040024004e06000084
:020000040000fa
:040028004e06000080
:020000040000fa
:04002c004e0600007c
:020000040000fa
:040030004e06000078
:020000040000fa
:04003400c003000005
:020000040000fa
:040038004e06000070
:020000040000fa
:04003c004e0600006c
:020000040000fa
:040040004e06000068
:020000040000fa
:040044004e06000064
:020000040000fa
:040048004e06000060
:020000040000fa
:04004c004e0600005c
:020000040000fa
:040050004606000060
:020000040000fa
:040054004e06000054
:020000040000fa
:040058004e06000050
:020000040000fa
:04005c004e0600004c
:020000040000fa
:040060004e06000048
:020000040000fa
:040064004e06000044
:020000040000fa
:040068004e06000040
:020000040000fa
:04006c00f603000097
:020000040000fa
:040070004e06000038
:020000040000fa
:040074001003000075
:020000040000fa
:040078004e06000030
:020000040000fa
:04007c004e0600002c
:020000040000fa
:040080004e06000028
:020000040000fa
:040084004e06000024
:020000040000fa
:040088004e06000020
:020000040000fa
:04008c004e0600001c
:020000040000fa
:040090004e06000018
:020000040000fa
:040094004e06000014
:020000040000fa
:040098004e06000010
:020000040000fa
:04009c004e0600000c
:020000040000fa
:0400a0004e06000008
:020000040000fa
:0400a4004e06000004
:020000040000fa
:0400a8004e06000000
:020000040000fa
:0400ac004e060000fc
:020000040000fa
:0400b0004e060000f8
:020000040000fa
:0400b4004e060000f4
:020000040000fa
:0400b8004e060000f0
:020000040000fa
:0400bc004e060000ec
:020000040000fa
:0400c0004e060000e8
:020000040000fa
:0400c4004e060000e4
:020000040000fa
:0400c8004e060000e0
:020000040000fa
:0400cc004e060000dc
:020000040000fa
:0400d0004e060000d8
:020000040000fa
:0400d4004e060000d4
:020000040000fa
:0400d8004e060000d0
:020000040000fa
:0400dc004e060000cc
:020000040000fa
:0400e0004e060000c8
:020000040000fa
:0400e4004e060000c4
:020000040000fa
:0400e8004e060000c0
:020000040000fa
:0400ec004e060000bc
:020000040000fa
:0400f0004e060000b8
:020000040000fa
:0400f4004e060000b4
:020000040000fa
:0400f8004e060000b0
:020000040000fa
:0400fc004e060000ac
:020000040000fa
:040100004e060000a7
:020000040000fa
:040104004e060000a3
:020000040000fa
:040108004e0600009f
:020000040000fa
:04010c004e0600009b
:020000040000fa
:040110004e06000097
:020000040000fa
:040114004e06000093
:020000040000fa
:040118004e0600008f
:020000040000fa
:04011c004e0600008b
:020000040000fa
:040120004e06000087
:020000040000fa
:040124004e06000083
:020000040000fa
:040128004e0600007f
:020000040000fa
:04012c004e0600007b
:020000040000fa
:040130004e06000077
:020000040000fa
:040134004e06000073
:020000040000fa
:040138004e0600006f
:020000040000fa
:04013c004e0600006b
:020000040000fa
:040140004e06000067
:020000040000fa
:040144004e06000063
:020000040000fa
:040148004e0600005f
:020000040000fa
:04014c004e0600005b
:020000040000fa
:040150004e06000057
:020000040000fa
:040154004e06000053
:020000040000fa
:040158004e0600004f
:020000040000fa
:04015c004e0600004b
:020000040000fa
:040160004e06000047
:020000040000fa
:040164004e06000043
:020000040000fa
:040168004e0600003f
:020000040000fa
:04016c004e0600003b
:020000040000fa
:040170004e06000037
:020000040000fa
:040174004e06000033
:020000040000fa
:040178004e0600002f
:020000040000fa
:04017c004e0600002b
:020000040000fa
:040180004e06000027
:020000040000fa
:040184004e06000023
:020000040000fa
:040188004e0600001f
:020000040000fa
:04018c004e0600001b
:020000040000fa
:040190004e06000017
:020000040000fa
:040194004e06000013
:020000040000fa
:040198004e0600000f
:020000040000fa
:04019c004e0600000b
:020000040000fa
:0401a0004e06000007
:020000040000fa
:0401a4004e06000003
:020000040000fa
:0401a8004e060000ff
:020000040000fa
:0401ac004e060000fb
:020000040000fa
:0401b0004e060000f7
:020000040000fa
:0401b4004e060000f3
:020000040000fa
:0401b8004e060000ef
:020000040000fa
:0401bc004e060000eb
:020000040000fa
:0401c0004e060000e7
:020000040000fa
:0401c4004e060000e3
:020000040000fa
:0401c8004e060000df
:020000040000fa
:0401cc004e060000db
:020000040000fa
:0401d0004e060000d7
:020000040000fa
:0401d4004e060000d3
:020000040000fa
:0401d8004e060000cf
:020000040000fa
:0401dc004e060000cb
:020000040000fa
:0401e0004e060000c7
:020000040000fa
:0401e4004e060000c3
:020000040000fa
:0401e8004e060000bf
:020000040000fa
:0401ec004e060000bb
:020000040000fa
:0401f0004e060000b7
:020000040000fa
:0401f4004e060000b3
:020000040000fa
:0401f8004e060000af
:020000040000fa
:0401fc004e060000ab
:020000040000fa
:040208004e0600009e
:020000040000fa
:04020c003e030000ad
:020000040000fa
:040210008003000067
:020000040000fa
:040214005e03000085
:020000040000fa
:04021800a00300003f
:020000040000fa
:04021c004e0600008a
:020000040000fa
:040220004e06000086
:020000040000fa
:040224004e06000082
:020000040000fa
:040228004e0600007e
:020000040000fa
:04022c004e0600007a
:020000040000fa
:040230004e06000076
:020000040000fa
:04023400c003000003
:020000040000fa
:040238004e0600006e
:020000040000fa
:04023c004e0600006a
:020000040000fa
:040240004e06000066
:020000040000fa
:040244004e06000062
:020000040000fa
:040248004e0600005e
:020000040000fa
:04024c004e0600005a
:020000040000fa
:04025000460600005e
:020000040000fa
:040254004e06000052
:020000040000fa
:040258004e0600004e
:020000040000fa
:04025c004e0600004a
:020000040000fa
:040260004e06000046
:020000040000fa
:040264004e06000042
:020000040000fa
:040268004e0600003e
:020000040000fa
:04026c00f603000095
:020000040000fa
:040270004e06000036
:020000040000fa
:040274001003000073
:020000040000fa
:040278004e0600002e
:020000040000fa
:04027c004e0600002a
:020000040000fa
:040280004e06000026
:020000040000fa
:040284004e06000022
:020000040000fa
:040288004e0600001e
:020000040000fa
:04028c004e0600001a
:020000040000fa
:040290004e06000016
:020000040000fa
:040294004e06000012
:020000040000fa
:040298004e0600000e
:020000040000fa
:04029c004e0600000a
:020000040000fa
:0402a0004e06000006
:020000040000fa
:0402a4004e06000002
:020000040000fa
:0402a8004e060000fe
:020000040000fa
:0402ac004e060000fa
:020000040000fa
:0402b0004e060000f6
:020000040000fa
:0402b4004e060000f2
:020000040000fa
:0402b8004e060000ee
:020000040000fa
:0402bc004e060000ea
:020000040000fa
:0402c0004e060000e6
:020000040000fa
:0402c4004e060000e2
:020000040000fa
:0402c8004e060000de
:020000040000fa
:0402cc004e060000da
:020000040000fa
:0402d0004e060000d6
:020000040000fa
:0402d4004e060000d2
:020000040000fa
:0402d8004e060000ce
:020000040000fa
:0402dc004e060000ca
:020000040000fa
:0402e0004e060000c6
:020000040000fa
:0402e4004e060000c2
:020000040000fa
:0402e8004e060000be
:020000040000fa
:0402ec004e060000ba
:020000040000fa
:0402f0004e060000b6
:020000040000fa
:0402f4004e060000b2
:020000040000fa
:0402f8004e060000ae
:020000040000fa
:0402fc004e060000aa
:020000040000fa
:040300004e060000a5
:020000040000fa
:040304004e060000a1
:020000040000fa
:040308004e0600009d
:020000040000fa
:04030c004e06000099
:020000040000fa
:040310004e06000095
:020000040000fa
:040314004e06000091
:020000040000fa
:040318004e0600008d
:020000040000fa
:04031c004e06000089
:020000040000fa
:040320004e06000085
:020000040000fa
:040324004e06000081
:020000040000fa
:040328004e0600007d
:020000040000fa
:04032c004e06000079
:020000040000fa
:040330004e06000075
:020000040000fa
:040334004e06000071
:020000040000fa
:040338004e0600006d
:020000040000fa
:04033c004e06000069
:020000040000fa
:040340004e06000065
:020000040000fa
:040344004e06000061
:020000040000fa
:040348004e0600005d
:020000040000fa
:04034c004e06000059
:020000040000fa
:040350004e06000055
:020000040000fa
:040354004e06000051
:020000040000fa
:040358004e0600004d
:020000040000fa
:04035c004e06000049
:020000040000fa
:040360004e06000045
:020000040000fa
:040364004e06000041
:020000040000fa
:040368004e0600003d
:020000040000fa
:04036c004e06000039
:020000040000fa
:040370004e06000035
:020000040000fa
:040374004e06000031
:020000040000fa
:040378004e0600002d
:020000040000fa
:04037c004e06000029
:020000040000fa
:040380004e06000025
:020000040000fa
:040384004e06000021
:020000040000fa
:040388004e0600001d
:020000040000fa
:04038c004e06000019
:020000040000fa
:040390004e06000015
:020000040000fa
:040394004e06000011
:020000040000fa
:040398004e0600000d
:020000040000fa
:04039c004e06000009
:020000040000fa
:0403a0004e06000005
:020000040000fa
:0403a4004e06000001
:020000040000fa
:0403a8004e060000fd
:020000040000fa
:0403ac004e060000f9
:020000040000fa
:0403b0004e060000f5
:020000040000fa
:0403b4004e060000f1
:020000040000fa
:0403b8004e060000ed
:020000040000fa
:0403bc004e060000e9
:020000040000fa
:0403c0004e060000e5
:020000040000fa
:0403c4004e060000e1
:020000040000fa
:0403c8004e060000dd
:020000040000fa
:0403cc004e060000d9
:020000040000fa
:0403d0004e060000d5
:020000040000fa
:0403d4004e060000d1
:020000040000fa
:0403d8004e060000cd
:020000040000fa
:0403dc004e060000c9
:020000040000fa
:0403e0004e060000c5
:020000040000fa
:0403e4004e060000c1
:020000040000fa
:0403e8004e060000bd
:020000040000fa
:0403ec004e060000b9
:020000040000fa
:0403f0004e060000b5
:020000040000fa
:0403f4004e060000b1
:020000040000fa
:0403f8004e060000ad
:020000040000fa
:0403fc004e060000a9
:020000040000fa
:100400006f8620000e7f22000e0188000000000091
:10041000000020000000e000020032000001200087
:1004200020028800140007001e0207000000e00000
:1004300003003a0080ed2000010020000200370098
:100440000000200001002000810f70000100320038
:1004500014000700000020000000e000020032004d
:100460000000020000000000880f020000000000f1
:100470000040da000000fe004440a90020002000f7
:100480000000e0000300320010002000900188000e
:100490004440a800000006008a1f78008b1f7800e7
:1004a00000000600a1028800800478000000eb0034
:1004b0001f003700e284440054a0b4009905ba003c
:1004c000e284440054a0b4009906ba00e2844400d7
:1004d00054a0b4000006eb00476fde00fd07b20039
:1004e000ae018800636ce10003003a00eaff0700f8
:1004f0000000eb000e003700606ce10008003a00dd
:10050000004deb000a05e800020039003420ec0041
:100510000af0a0008b05e900f9ff3e000400370057
:100520006168e100010032000086eb000b0007006b
:1005300019c7ba001905ba000e04e00003003a001a
:100540000a00e000dbff3a0000000600fe07b200f0
:10055000ae0288008a047800f5ff37000cd0a300b3
:10056000e20f4d001c00390089027800354dba00b9
:100570000a05e800020039003420ec000af0a0006f
:100580008b05e9000f003200254dba000a05e8008e
:10059000020039003420ec000af0a0008b05e900cd
:1005a000080032000c00e0000600320015cdba0051
:1005b0000a05e800020039003420ec000af0a0002f
:1005c0008b05e9008984e80054a0b4000b00e0002a
:1005d000e2ff3a00000006009902ba00055d7800cb
:1005e0008b05e900f7ff3200c82ade00055d7800c0
:1005f0008b05e900f3ff32000c00e000f1ff320050
:1006000019ddba00eeff3700280d040000000000dd
:100610000c0c040000000000640604000000000050
:100620003600f800809fbe00829fbe00849fbe00ff
:10063000869fbe000000fa00300480006800600061
:100640000000e00006003200604180000000e00091
:100650000200320060418000000001008660a900b5
:100660000080fa004f03be004f02be004f01be00e3
:100670004f00be003600f900004006003600f800ca
:10068000809fbe00829fbe00849fbe00869fbe00ea
:100690000000fa008020a9000000eb002f060700f0
:1006a0000080fa004f03be004f02be004f01be00a3
:1006b0004f00be003600f900004006003600f8008a
:1006c000809fbe00829fbe00849fbe00869fbe00aa
:1006d0000000fa00260607008040a9001000200054
:1006e0001e0607000080fa004f03be004f02be0046
:1006f0004f01be004f00be003600f900004006006a
:100700003600f800809fbe00829fbe00849fbe001e
:10071000869fbe000000fa008060a9002000200033
:100720000e0607000080fa004f03be004f02be0015
:100730004f01be004f00be003600f9000040060029
:100740003600f800809fbe00829fbe00849fbe00de
:10075000869fbe000000fa008080a90030002000c3
:10076000fe0507000080fa004f03be004f02be00e6
:100770004f01be004f00be003600f90000400600e9
:100780003600f800809fbe00829fbe00849fbe009e
:10079000869fbe000000fa00304180000000e000ab
:1007a000020032003041800000000100308620004d
:1007b000104078008040e800308620000148780032
:1007c0002086200011c0b300014878008460a90091
:1007d0000080fa004f03be004f02be004f01be0072
:1007e0004f00be003600f900004006003600f80059
:1007f000809fbe00829fbe00849fbe00869fbe0079
:100800000000fa008620a9004110800000082000a6
:10081000008060000000e0000800320008e2a9004b
:100820000828ef0070408000200090008000eb005e
:10083000010878000e28ef000d01370040408000cd
:100840008000eb00b200200003002000820f500067
:10085000838f5800fc003e00006001000b00370051
:1008600039003700750037009c003700f30037006f
:10087000c8003700d9003700f0003700db00370030
:10088000f1003700340037005000370000802000ae
:1008900020009000620060000000e000f3003a00d9
:1008a0000080200010009000704088000080200030
:1008b00010009000104078000ae8b7000080200087
:1008c0001000900010009000604088000080200020
:1008d00010009000e6004000008020001100980009
:1008e000008020009000900060852000808f5000e4
:1008f00003003a00008020000185200011009800cc
:1009000000802000a00090000100a10021009800bc
:1009100000802000900090000080200010007800ef
:10092000808f500004003a0000802000a00090005a
:100930000110a000210098000602a800200020005d
:1009400040408800ca0037000622a800200020008e
:1009500040408800c6003700411080000000280099
:10096000008060000000e0000800320000802000ed
:10097000604090008040e8000080200061409800c6
:1009800040002000f2010700b900370080408000dd
:100990008000d100f00f200000806000101088005f
:1009a0008040800061006000004078000004e000aa
:1009b00003003200b000200040408800ac00370047
:1009c0003000200040408800a9003700411080001e
:1009d00000002800008060000000e00008003200f5
:1009e00000802000604090008040e80000802000ef
:1009f0006140980040002000d50107009c003700ae
:100a00000622a800804080004800de00e60060006a
:100a1000000f2000010070008040880080408000ae
:100a20000000a0008040880010c0b30012e8b700aa
:100a300020002000404088008d00370012c8bf0011
:100a4000e14f50000a003200604080001000780042
:100a5000804088006040800020009000a040880016
:100a6000604080002040900016e8b7000100370089
:100a70001268ef0081408000f00f2000808f50004e
:100a800009003600804080004800de00e60060007b
:100a9000000f20000100700010108800a00020004e
:100aa00040408800720037008040800010108800ad
:100ab0008040800061006000004078000004e00099
:100ac00003003200500020004040880068003700da
:100ad0003000200040408800650037004110800051
:100ae00000002800008060000000e00009003200e3
:100af00000802000604090008040e80000802000de
:100b00006140980009e2a900500020009001070010
:100b10005700370016c8bf008080fb008100e90045
:100b2000cf08de00814078000040e90016e8b700f9
:100b30000104e000100032006040800066004000c8
:100b4000604088000ac8bf000040e9000ae8b7001a
:100b50000ac8bf000004e00003003a0020002000a3
:100b60007b010700420037000622a8002000200079
:100b7000404088003e003700a04080009040780050
:100b80008180fb00111088000000e800a040880070
:100b9000370037004110800000002800008060000e
:100ba0000000e0000900320000802000604090005a
:100bb0008040e80000802000614098004000200054
:100bc0006301070009e2a900290037000662a800b6
:100bd0008000200040408800250037008000200071
:100be000404088000662a80021003700a040800035
:100bf0000110800081407800014878000000e80082
:100c0000a040880016c8bf000040e90016e8b70001
:100c100016c8bf000004e0000400320006a2a900cc
:100c200060002000404088000200370006a2a800b3
:100c3000360107000682a8000d00370020002000c2
:100c4000430107000a003700008020006040900048
:100c50008040e80000802000614098006000200093
:100c60003b01070000000000010037000000000009
:100c70000080fa004f03be004f02be004f01be00cd
:100c80004f00be003600f900004006000000fa00e8
:100c90008540a9000080fa00004006000040da000c
:080ca0000000fe000000050049
:020000040000fa
:100ca8000000fa00808120000080fa0000000600a1
:100cb8000000fa00c08120000080fa000000060051
:100cc8000000fa00c04080004800de00e1406000fb
:100cd800501680004c00de006140600080cf50005c
:100ce80016003200511680000000210000806000cc
:100cf8000000e000110032005116800000002200c0
:100d08000080600000f0a7000000ea000000e90091
:100d18004f00de00004078000080fb0061006000aa
:100d28004900dd00c14080000190a1000100700071
:100d3800c04088002008a8004e003700c04080004e
:100d48004a00de00e1406000501680004e00de00e0
:100d58006140600080cf500011003a0051168000b9
:100d6800000024000080600000f0a7000000ea00f6
:100d78000000e9004f00de00004078000080fb0022
:100d8800610060004a00dd00c140800001a0a100b0
:100d980001007000c04088002028a80035003700f6
:100da800e04080004800de00e1406000501680000e
:100db8004f00de000040780080cf50001500320060
:100dc8005116800000002800008060000000e0004c
:100dd80010003200501780007000600000f0a7007b
:100de8000000ea000000e9004f00de000040780043
:100df8000080fb00610060004900dd00e1408000e8
:100e08000190a10001007000e04088002048a8007f
:100e180018003700e04080004a00de00e140600032
:100e2800501780004500de006140600080cf500010
:100e380010003a0051178000000220000080600076
:100e480000f0a7000000ea000000e9004f00de0003
:100e5800004078000080fb00610060004a00dd006f
:100e6800e140800001a0a10001007000e04088007e
:100e78002068a800501680004c00de006140600029
:100e88000080fb00610060004800dd00c140800078
:100e98000180a10001007000c04088005016800049
:100ea8004f00de00004078000080fb006100600019
:100eb8004800dd00e14080000180a10001007000d1
:100ec800e04088000080fa00000006000000fa00f8
:100ed80040662000df020700501680004c00de004c
:100ee800614060000080fb00610060004800dd0098
:100ef800c14080000180a10001007000c04088004e
:100f080051168000000024000080600000f0a70057
:100f18000000ea000000e9004f00de000040780011
:100f28000080fb00610060004a00dd00c1408000d5
:100f380001a0a10001007000c04088005016800088
:100f48004f00de00004078000080fb006100600078
:100f58004800dd00e14080000180a1000100700030
:100f6800e0408800511780000002200000806000e7
:100f780000f0a7000000ea000000e9004f00de00d2
:100f8800004078000080fb00610060004a00dd003e
:100f9800e140800001a0a10001007000e04088004d
:100fa800020007000080fa00000006000000fa00b6
:100fb80020c8bf00614060000004e0000200320069
:100fc800808120001400070020c8bf006440600032
:100fd8000004e00002003200c08120000e0007007b
:100fe8000080fa00000006000000fa002008a900ae
:100ff8002028a9002048a9002068a9000080fa003c
:10100800000006000000fa001a28ef001e28ef0072
:101018000080fa00000006000200fa00000f7800c5
:101028001e007800900078000020200000806000fa
:101038000000e000060032001e007800100090005a
:101048008000e8001e0078001100980005003700b5
:101058001e007800100090008000e9001e00780053
:10106800110098001e0078009e0078001141900041
:10107800024878000080fa00000006000000fa002c
:1010880000802000018520001100980000802000c9
:10109800018520000108780000802000a000900051
:1010a8000110a0002100980000802000a0009000fe
:1010b8000100a10021009800008020008040eb0082
:1010c80061409800d0092000201088000000280006
:1010d800301088000822ef008620a9009620a8007a
:1010e8000080fa00000006000200fa0000802000dc
:1010f800e0409000014f78001e4078000080fa0020
:10110800000006000000fa00604080006600400011
:10111800604088000ac8bf000040e9000ae8b7003c
:101128000ac8bf000004e00003003a0040002000a5
:10113800404088000200370010002000404088002e
:101148000080fa00000006000200fa00000f780094
:101158000642a80070408000200090000000e000d7
:101168000300320070408000200090001e087800c4
:101178000828ef000080fa00000006000800fa00c6
:10118800000f78002147980022079800330798003d
:101198000080200020009000610060000000e00056
:1011a8000a003a00ae0190002e4190009e0078009f
:1011b800c0852000770007003e019000c18520000f
:1011c80010c0b3001f000700030037003e00900066
:1011d8008000eb00010878000080fa00000006009b
:1011e8000800fa00000f78002147980022079800ad
:1011f8003307980000802000200090006100600004
:101208000000e0000a003a00ae0190002e41900074
:101218009e00780060852000460007003e0190008f
:101228006185200010c0b3000600070003003700e6
:101238003e0090008000eb00010878000080fa0072
:10124800000006000600fa00004f78001107980019
:1012580022079800008020002000900061006000b4
:101268000000e0002e003a002e009000110020003f
:101278000108780000802000100078009e0090008f
:101288001100980000802000100078001e487800a7
:101298000080200010007800ae0090002100980027
:1012a8000080200010007800e60040000080200048
:1012b80001087800008020009000780060852000f8
:1012c800808f500003003a00008020000185200034
:1012d8000108780000802000a00090000110a10003
:1012e80021009800008020009000900000802000dd
:1012f80010007800808f500004003a000080200021
:10130800a00090000100a00021009800404080004b
:101318000000e00005003a008620a800030037001e
:101328002e0090008000eb00010878000080fa0091
:10133800000006000800fa00000f78001107980066
:1013480042479800330798003e0090000000400094
:10135800800078001e007800010878001e007800e0
:1013680010007800800078000100a0001e007800be
:10137800010878001e007800ce40900021409800b7
:101388001e0078009e009000210098000080fa005e
:10139800000006000800fa00000f78001107980006
:1013a80042479800330798003e0090000000400034
:1013b800800078001e007800010878001e00780080
:1013c800ce409000214098001e0078009e009000ba
:1013d800210098000080fa00000006000000fa00d2
:1013e80000802000200090006200600000f0a7004c
:1013f8000000ea000000ea004f00de00004078002c
:101408000080fa00000006000000fa0000802000ba
:10141800200090006100600000f0a7000000ea00d2
:101428000000ea004f00de00004078000080fa006b
:10143800000006000000fa00004620001012880094
:1014480030002e0020128800c000280000128800fa
:101458000080fa00000006000400fa00000f78007f
:101468001107980000000000001280006200600070
:101478000000e000fcff3a001e0078001000780031
:10148800401288001e009000411280000108780078
:101498000080fa00000006001800fa00100f9800fb
:1014a800210f9800320f98000000eb00000f780021
:1014b8000000eb00100798000000eb007007980090
:1014c8000000eb00000f9800200020006007980043
:1014d8002e0890000000d100200f98001e089000f0
:1014e8000000e00005003a000000eb0050079800fb
:1014f800700047002007980004003700ee009000b5
:10150800510798009e089000210798003e08900017
:101518000000e00005003a000000eb0040079800da
:101528006e0047003007980005003700ee00900075
:1015380041079800be08900031079800000000009d
:1015480000128000620060000000e000fcff3a002a
:101558001b00370000128000620060000000e000fd
:1015680008003a002e009000100078004012880011
:10157800ae0090005e0090000080400020079800b8
:101588001e0fe800011280000002200000806000a9
:101598000000e0000a003a003e009000411280007e
:1015a80001087800be0090004e00900000804000c6
:1015b800300798001e0090000000e800100798000f
:1015c8002e0890009e007800808f5000e1ff3900bf
:1015d8000f00370001128000000220000080600028
:1015e8000000e0000a003a003e009000411280002e
:1015f80001087800be0090004e0090000080400076
:10160800300798001e0090000000e80010079800be
:101618009e0090002e089000808f5000edff39004a
:101628001e0078000080fa00000006000400fa009e
:10163800100798008e0078000e80e80086ff0700eb
:101648001e0078000080fa00000006000600fa007c
:10165800000f78001107980022079800ae0090004c
:101668001e007800010178009e0090008aff0700a4
:101678000080fa00000006000000fa001112800045
:1016880000402000008060000000e00002003a00f6
:101698000000eb0001003700100020000080fa0075
:1016a800000006000000fa00001280000080fa0026
:1016b800000006000000fa00790007006101b90087
:1016c80010418000214180000200400083804800d2
:1016d8001041880021418800770007000080fa0047
:1016e800000006000000fa0010418000214180003f
:1016f8000080fa00000006000000fa001041800097
:10170800214180004609dd004a00de00000071002a
:10171800ca08de00000078000080fa000000060019
:101728000400fa00204798005d000700004f780089
:10173800000000005a0007009e80fb008100500056
:101748002e4090000080fb00808f5000f9ff35008c
:101758000080fa00000006000000fa002228ef00ce
:101768002428ef000021ef00f07c200010088800fa
:101778000001280020088800304180000000e000b7
:1017880002003a00c0c02000240007008460a900bd
:101798009460a800208620008040eb000148780073
:1017a8000080fa00000006000200fa00000f78002e
:1017b8009e00780011088800208620008040eb00f9
:1017c800014878000080fa00000006000000fa00d6
:1017d800100880000080fa00000006000200fa00ed
:1017e800000f78009e0078000108880020862000fd
:1017f8008040eb00014878000080fa0000000600f5
:101808000000fa00000880000080fa0000000600ce
:101818000000fa000080fa00000006000200fa004a
:10182800000f78009460a9009e007800314188007c
:101838009460a8000080fa00000006000000fa008a
:10184800208620008040eb00014878009460a800c2
:1018580005e1a8000080fa00000006000000fa0078
:1018680005e1a9009460a9000080fa0000000600c4
:101878000200fa0020862000104f78001e407800f1
:101888000004e00003003200208620008040eb00c6
:10189800014878001e4078000080fa000000060029
:1018a8000000fa0030862000104078000080fb001d
:1018b8000080fa00000006000000fa0030862000d0
:1018c8008040eb00014878000080fa000000060024
:1018d8000000fa00cc22ef00d422ef001000200014
:1018e800e0168800e422ef00ec22ef00f422ef007b
:1018f800f00f2f0040168800000021008016880095
:1019080000ec2000c0168800f00f200000178800a7
:10191800b00b200040178800c03c200080178800ca
:101928005620ef005820ef005a20ef005c20ef000f
:101938005e20ef006020ef006e20ef007020ef00c7
:101948007220ef007420ef007620ef007820ef007f
:10195800ce22ef00d622ef00de22ef00e622ef00d3
:10196800ee22ef00f622ef00f00320001027880097
:10197800008c2f0030278800000f200040278800a7
:101988009008200050278800003c2000602788002d
:10199800a804a800113a8000f00b20000081600024
:1019a800600420007105200023742000804978001d
:1019b8008149780082497800b1368000f00f2c0008
:1019c800808060000070200001007000b036880040
:1019d800c136800000fc2f00008060000030a000ad
:1019e800c036880051368000f00f2c0080806000df
:1019f800009020000100700050368800103a8000e6
:101a0800000178000260a000600420007105200039
:101a18002374200080497800814978008249780041
:101a28006380a8006440a80065c0a8006600a800fc
:101a380080d22000070007008660a9009660a800f1
:101a48000080fa00000006000000fa000080fa009a
:101a5800000006000200fa00000f78009660a90056
:101a68009e007800614188009660a8000080fa0016
:101a7800000006000200fa00000f78001e0078003f
:101a8800f4ff07000080fa00000006000600fa00d4
:101a9800000f7800110798004247980000000000e6
:101aa80040418000e10f5000fdff3200100020008f
:101ab80040418800838220001e017800ce409000bb
:101ac8001e009000adfd07000080fa00000006002f
:101ad8000600fa00000f78001107980042479800a6
:101ae8000000000040418000e10f5000fdff32007f
:101af800838220001e017800ce4090001e009000d6
:101b0800b7fd07000080fa00000006000200fa0096
:101b1800000f78001e007800c4fe07000080fa005d
:101b2800000006001000fa00600020004041880014
:101b38000040eb0010479800f0c7b300204798001a
:101b48000040eb00304798000040eb004047980009
:101b5800f0c3b300504798000040eb00604798007e
:101b6800c0c0b300704798000040eb00004f9800d9
:101b78000040eb00104f9800dc62a80048ff070007
:101b8800004f78000000000045ff07009e80fb0022
:101b9800010050000000e000fbff3400dc62a900f7
:101ba800ea004700020009008018eb00f00f20004f
:101bb800500798006a004700828220008000780061
:101bc80010c0b3009ffd070035ff0700004f7800e5
:101bd8000000000032ff07009e80fb00010050005b
:101be8000000e000fbff34000e00e80022c0b30054
:101bf80080007800d0032000a4ff0700640047009d
:101c080022c0b30080007800c00320009fff0700b7
:101c18000000000040418000e10f5000fdff3a0045
:101c2800f07d2000b9ff07000080fa0000000600e0
:101c38000000fa009bfe0700504188000080fa006f
:101c4800000006000000fa000621ef001000200046
:101c5800600888000001280080088800408620006d
:101c68008040eb00014878000080fa000000060080
:101c78000000fa00210480000008200000806000b5
:101c88000000e00009003200508620001040780073
:101c98008040e800508620000148780040862000f7
:101ca80011c0b3000148780084e0a9000080fa0060
:101cb800000006000200fa00000f78009e0078007d
:101cc80061088800408620008040eb0001487800c9
:101cd8000080fa00000006000000fa00600880009a
:101ce8000080fa00000006000200fa00000f7800e9
:101cf8009e00780031088800408620008040eb0074
:101d0800014878000080fa00000006000000fa0090
:101d1800300880000080fa00000006000000fa0089
:101d2800408620008040eb000148780011e1a800bf
:101d38000080fa00000006000000fa0011e1a90086
:101d48000080fa00000006000200fa004086200029
:101d5800104f78001e4078000004e00003003200b5
:101d6800408620008040eb00014878001e40780043
:101d78000080fa00000006000000fa0050862000eb
:101d8800104078000080fb000080fa000000060088
:101d98000000fa00508620008040eb0001487800df
:081da8000080fa0000000600b3
:020000040000fa
:101db0002c08000002000000800000003008000035
:101dc00020000000800000002e080000020000003b
:101dd00082000000ffff0000620800000200000017
:101de00080000000220800000600000080000000c3
:101df00050080000120000008000000000080000f1
:101e00001800000080000000180800000a00000010
:101e1000800000002808000004000000800000008e
:101e200064080000020000008000000000000000c4
:020000040000fa
:101e30000000fa0041058000f08f2f000080600054
:101e40000080a0004005880061058000f0f82f00a8
:101e5000008060000040a0006005880061058000ef
:101e600080ff2f00008060000000a0006005880057
:101e700061058000f0ff28000080600000c0a00025
:101e80006005880021058000f0ff280000806000c8
:101e900000c0a000200588000080fa0000000600b5
:101ea0000000fa0000102300303a88004827ef00b5
:101eb0004e27ef007027ef007227ef007427ef0026
:101ec0007627ef007827ef007a27ef007c27ef00d6
:101ed0003200200080072000a10920003374200078
:101ee0008049780081497800824978000001eb0040
:101ef00060042000710520002374200080497800d0
:101f000081497800824978000080fa0000000600cc
:101f10000800fa001d000700eefb070003ff0700a2
:101f200061fb0700000f780063fb070010079800b3
:101f30006000b8002007980031079800dca2a900d3
:101f40001cfc0700ddfd07003bff070028fc070025
:101f5000dca2a8000140fe00f8ff37000200fa00f2
:101f6000000f78009e00780071418800ffff370065
:101f70000000fa00008320008007780080842000a1
:101f8000000188000080fa00000006000000fa004e
:101f900051fe0700c2ff0700a5ff070027fd07004d
:101fa00038fc070029ff0700edfd07000080fa005c
:041fb0000000060027
:020000040000fa
:020000040002f8
:04aff000ffbf00009f
:020000040000fa
:020000040002f8
:04aff400fffe00005c
:020000040000fa
:020000040002f8
:04aff8001e630000d4
:020000040000fa
:020000040002f8
:04affc003f3e0000d4
:00000001FF
