:020000040000fa
:080000000002040000000000f2
:020000040000fa
:040008006c06000082
:020000040000fa
:04000c003e030000af
:020000040000fa
:040010008003000069
:020000040000fa
:040014005e03000087
:020000040000fa
:04001800a003000041
:020000040000fa
:04001c006c0600006e
:020000040000fa
:040020006c0600006a
:020000040000fa
:040024006c06000066
:020000040000fa
:040028006c06000062
:020000040000fa
:04002c006c0600005e
:020000040000fa
:040030006c0600005a
:020000040000fa
:04003400c003000005
:020000040000fa
:040038006c06000052
:020000040000fa
:04003c006c0600004e
:020000040000fa
:040040006c0600004a
:020000040000fa
:040044006c06000046
:020000040000fa
:040048006c06000042
:020000040000fa
:04004c006c0600003e
:020000040000fa
:040050006c0600003a
:020000040000fa
:040054006c06000036
:020000040000fa
:040058006c06000032
:020000040000fa
:04005c006c0600002e
:020000040000fa
:040060006c0600002a
:020000040000fa
:040064006c06000026
:020000040000fa
:040068006c06000022
:020000040000fa
:04006c00f603000097
:020000040000fa
:040070006c0600001a
:020000040000fa
:040074001003000075
:020000040000fa
:040078006c06000012
:020000040000fa
:04007c006c0600000e
:020000040000fa
:040080006c0600000a
:020000040000fa
:040084006c06000006
:020000040000fa
:040088006c06000002
:020000040000fa
:04008c006c060000fe
:020000040000fa
:040090006c060000fa
:020000040000fa
:040094006c060000f6
:020000040000fa
:040098006c060000f2
:020000040000fa
:04009c006c060000ee
:020000040000fa
:0400a0006c060000ea
:020000040000fa
:0400a4006c060000e6
:020000040000fa
:0400a8006c060000e2
:020000040000fa
:0400ac006c060000de
:020000040000fa
:0400b0006c060000da
:020000040000fa
:0400b4006c060000d6
:020000040000fa
:0400b8006c060000d2
:020000040000fa
:0400bc006c060000ce
:020000040000fa
:0400c0006c060000ca
:020000040000fa
:0400c4006c060000c6
:020000040000fa
:0400c8006c060000c2
:020000040000fa
:0400cc006c060000be
:020000040000fa
:0400d0006c060000ba
:020000040000fa
:0400d4006c060000b6
:020000040000fa
:0400d8006c060000b2
:020000040000fa
:0400dc006c060000ae
:020000040000fa
:0400e0006c060000aa
:020000040000fa
:0400e4006c060000a6
:020000040000fa
:0400e8006c060000a2
:020000040000fa
:0400ec006c0600009e
:020000040000fa
:0400f0006c0600009a
:020000040000fa
:0400f4006c06000096
:020000040000fa
:0400f8006c06000092
:020000040000fa
:0400fc006c0600008e
:020000040000fa
:040100006c06000089
:020000040000fa
:040104006c06000085
:020000040000fa
:040108006c06000081
:020000040000fa
:04010c006c0600007d
:020000040000fa
:040110006c06000079
:020000040000fa
:040114006c06000075
:020000040000fa
:040118006c06000071
:020000040000fa
:04011c006c0600006d
:020000040000fa
:040120006c06000069
:020000040000fa
:040124006c06000065
:020000040000fa
:040128006c06000061
:020000040000fa
:04012c006c0600005d
:020000040000fa
:040130006c06000059
:020000040000fa
:040134006c06000055
:020000040000fa
:040138006c06000051
:020000040000fa
:04013c006c0600004d
:020000040000fa
:040140006c06000049
:020000040000fa
:040144006c06000045
:020000040000fa
:040148006c06000041
:020000040000fa
:04014c006c0600003d
:020000040000fa
:040150006c06000039
:020000040000fa
:040154006c06000035
:020000040000fa
:040158006c06000031
:020000040000fa
:04015c006c0600002d
:020000040000fa
:040160006c06000029
:020000040000fa
:040164006c06000025
:020000040000fa
:040168006c06000021
:020000040000fa
:04016c006c0600001d
:020000040000fa
:040170006c06000019
:020000040000fa
:040174006c06000015
:020000040000fa
:040178006c06000011
:020000040000fa
:04017c006c0600000d
:020000040000fa
:040180006c06000009
:020000040000fa
:040184006c06000005
:020000040000fa
:040188006c06000001
:020000040000fa
:04018c006c060000fd
:020000040000fa
:040190006c060000f9
:020000040000fa
:040194006c060000f5
:020000040000fa
:040198006c060000f1
:020000040000fa
:04019c006c060000ed
:020000040000fa
:0401a0006c060000e9
:020000040000fa
:0401a4006c060000e5
:020000040000fa
:0401a8006c060000e1
:020000040000fa
:0401ac006c060000dd
:020000040000fa
:0401b0006c060000d9
:020000040000fa
:0401b4006c060000d5
:020000040000fa
:0401b8006c060000d1
:020000040000fa
:0401bc006c060000cd
:020000040000fa
:0401c0006c060000c9
:020000040000fa
:0401c4006c060000c5
:020000040000fa
:0401c8006c060000c1
:020000040000fa
:0401cc006c060000bd
:020000040000fa
:0401d0006c060000b9
:020000040000fa
:0401d4006c060000b5
:020000040000fa
:0401d8006c060000b1
:020000040000fa
:0401dc006c060000ad
:020000040000fa
:0401e0006c060000a9
:020000040000fa
:0401e4006c060000a5
:020000040000fa
:0401e8006c060000a1
:020000040000fa
:0401ec006c0600009d
:020000040000fa
:0401f0006c06000099
:020000040000fa
:0401f4006c06000095
:020000040000fa
:0401f8006c06000091
:020000040000fa
:0401fc006c0600008d
:020000040000fa
:040208006c06000080
:020000040000fa
:04020c003e030000ad
:020000040000fa
:040210008003000067
:020000040000fa
:040214005e03000085
:020000040000fa
:04021800a00300003f
:020000040000fa
:04021c006c0600006c
:020000040000fa
:040220006c06000068
:020000040000fa
:040224006c06000064
:020000040000fa
:040228006c06000060
:020000040000fa
:04022c006c0600005c
:020000040000fa
:040230006c06000058
:020000040000fa
:04023400c003000003
:020000040000fa
:040238006c06000050
:020000040000fa
:04023c006c0600004c
:020000040000fa
:040240006c06000048
:020000040000fa
:040244006c06000044
:020000040000fa
:040248006c06000040
:020000040000fa
:04024c006c0600003c
:020000040000fa
:040250006c06000038
:020000040000fa
:040254006c06000034
:020000040000fa
:040258006c06000030
:020000040000fa
:04025c006c0600002c
:020000040000fa
:040260006c06000028
:020000040000fa
:040264006c06000024
:020000040000fa
:040268006c06000020
:020000040000fa
:04026c00f603000095
:020000040000fa
:040270006c06000018
:020000040000fa
:040274001003000073
:020000040000fa
:040278006c06000010
:020000040000fa
:04027c006c0600000c
:020000040000fa
:040280006c06000008
:020000040000fa
:040284006c06000004
:020000040000fa
:040288006c06000000
:020000040000fa
:04028c006c060000fc
:020000040000fa
:040290006c060000f8
:020000040000fa
:040294006c060000f4
:020000040000fa
:040298006c060000f0
:020000040000fa
:04029c006c060000ec
:020000040000fa
:0402a0006c060000e8
:020000040000fa
:0402a4006c060000e4
:020000040000fa
:0402a8006c060000e0
:020000040000fa
:0402ac006c060000dc
:020000040000fa
:0402b0006c060000d8
:020000040000fa
:0402b4006c060000d4
:020000040000fa
:0402b8006c060000d0
:020000040000fa
:0402bc006c060000cc
:020000040000fa
:0402c0006c060000c8
:020000040000fa
:0402c4006c060000c4
:020000040000fa
:0402c8006c060000c0
:020000040000fa
:0402cc006c060000bc
:020000040000fa
:0402d0006c060000b8
:020000040000fa
:0402d4006c060000b4
:020000040000fa
:0402d8006c060000b0
:020000040000fa
:0402dc006c060000ac
:020000040000fa
:0402e0006c060000a8
:020000040000fa
:0402e4006c060000a4
:020000040000fa
:0402e8006c060000a0
:020000040000fa
:0402ec006c0600009c
:020000040000fa
:0402f0006c06000098
:020000040000fa
:0402f4006c06000094
:020000040000fa
:0402f8006c06000090
:020000040000fa
:0402fc006c0600008c
:020000040000fa
:040300006c06000087
:020000040000fa
:040304006c06000083
:020000040000fa
:040308006c0600007f
:020000040000fa
:04030c006c0600007b
:020000040000fa
:040310006c06000077
:020000040000fa
:040314006c06000073
:020000040000fa
:040318006c0600006f
:020000040000fa
:04031c006c0600006b
:020000040000fa
:040320006c06000067
:020000040000fa
:040324006c06000063
:020000040000fa
:040328006c0600005f
:020000040000fa
:04032c006c0600005b
:020000040000fa
:040330006c06000057
:020000040000fa
:040334006c06000053
:020000040000fa
:040338006c0600004f
:020000040000fa
:04033c006c0600004b
:020000040000fa
:040340006c06000047
:020000040000fa
:040344006c06000043
:020000040000fa
:040348006c0600003f
:020000040000fa
:04034c006c0600003b
:020000040000fa
:040350006c06000037
:020000040000fa
:040354006c06000033
:020000040000fa
:040358006c0600002f
:020000040000fa
:04035c006c0600002b
:020000040000fa
:040360006c06000027
:020000040000fa
:040364006c06000023
:020000040000fa
:040368006c0600001f
:020000040000fa
:04036c006c0600001b
:020000040000fa
:040370006c06000017
:020000040000fa
:040374006c06000013
:020000040000fa
:040378006c0600000f
:020000040000fa
:04037c006c0600000b
:020000040000fa
:040380006c06000007
:020000040000fa
:040384006c06000003
:020000040000fa
:040388006c060000ff
:020000040000fa
:04038c006c060000fb
:020000040000fa
:040390006c060000f7
:020000040000fa
:040394006c060000f3
:020000040000fa
:040398006c060000ef
:020000040000fa
:04039c006c060000eb
:020000040000fa
:0403a0006c060000e7
:020000040000fa
:0403a4006c060000e3
:020000040000fa
:0403a8006c060000df
:020000040000fa
:0403ac006c060000db
:020000040000fa
:0403b0006c060000d7
:020000040000fa
:0403b4006c060000d3
:020000040000fa
:0403b8006c060000cf
:020000040000fa
:0403bc006c060000cb
:020000040000fa
:0403c0006c060000c7
:020000040000fa
:0403c4006c060000c3
:020000040000fa
:0403c8006c060000bf
:020000040000fa
:0403cc006c060000bb
:020000040000fa
:0403d0006c060000b7
:020000040000fa
:0403d4006c060000b3
:020000040000fa
:0403d8006c060000af
:020000040000fa
:0403dc006c060000ab
:020000040000fa
:0403e0006c060000a7
:020000040000fa
:0403e4006c060000a3
:020000040000fa
:0403e8006c0600009f
:020000040000fa
:0403ec006c0600009b
:020000040000fa
:0403f0006c06000097
:020000040000fa
:0403f4006c06000093
:020000040000fa
:0403f8006c0600008f
:020000040000fa
:0403fc006c0600008b
:020000040000fa
:100400002f8620000e7f22000e01880000000000d1
:10041000000020000000e000020032000001200087
:1004200020028800140007002d0207000000e000f1
:1004300003003a0020c6200001002000020037001f
:100440000000200001002000810f70000100320038
:1004500014000700000020000000e000020032004d
:100460000000020000000000020d02000000000079
:100470000040da000000fe004440a90020002000f7
:100480000000e0000300320010002000900188000e
:100490004440a800000006008a1f78008b1f7800e7
:1004a00000000600a1028800800478000000eb0034
:1004b0001f003700e284440054a0b4009905ba003c
:1004c000e284440054a0b4009906ba00e2844400d7
:1004d00054a0b4000006eb00476fde00fd07b20039
:1004e000ae018800636ce10003003a00eaff0700f8
:1004f0000000eb000e003700606ce10008003a00dd
:10050000004deb000a05e800020039003420ec0041
:100510000af0a0008b05e900f9ff3e000400370057
:100520006168e100010032000086eb000b0007006b
:1005300019c7ba001905ba000e04e00003003a001a
:100540000a00e000dbff3a0000000600fe07b200f0
:10055000ae0288008a047800f5ff37000cd0a300b3
:10056000e20f4d001c00390089027800354dba00b9
:100570000a05e800020039003420ec000af0a0006f
:100580008b05e9000f003200254dba000a05e8008e
:10059000020039003420ec000af0a0008b05e900cd
:1005a000080032000c00e0000600320015cdba0051
:1005b0000a05e800020039003420ec000af0a0002f
:1005c0008b05e9008984e80054a0b4000b00e0002a
:1005d000e2ff3a00000006009902ba00055d7800cb
:1005e0008b05e900f7ff3200c82ade00055d7800c0
:1005f0008b05e900f3ff32000c00e000f1ff320050
:1006000019ddba00eeff3700400c040000000000c6
:10061000ce0a040000000000820604000000000072
:100620003600f800809fbe00829fbe00849fbe00ff
:10063000869fbe000000fa00300480006800600061
:100640000000e00006003200404180000000e000b1
:100650000200320040418000000001008660a900d5
:100660000080fa004f03be004f02be004f01be00e3
:100670004f00be003600f900004006003600f800ca
:10068000809fbe00829fbe00849fbe00869fbe00ea
:100690000000fa008020a9000000eb00eb04070036
:1006a0000080fa004f03be004f02be004f01be00a3
:1006b0004f00be003600f900004006003600f8008a
:1006c000809fbe00829fbe00849fbe00869fbe00aa
:1006d0000000fa00e20407008040a900100020009a
:1006e000da0407000080fa004f03be004f02be008c
:1006f0004f01be004f00be003600f900004006006a
:100700003600f800809fbe00829fbe00849fbe001e
:10071000869fbe000000fa008060a9002000200033
:10072000ca0407000080fa004f03be004f02be005b
:100730004f01be004f00be003600f9000040060029
:100740003600f800809fbe00829fbe00849fbe00de
:10075000869fbe000000fa008080a90030002000c3
:10076000ba0407000080fa004f03be004f02be002b
:100770004f01be004f00be003600f90000400600e9
:100780003600f800809fbe00829fbe00849fbe009e
:10079000869fbe000000fa00304180000000e000ab
:1007a000020032003041800000000100108620006d
:1007b000104078008040e800108620000148780052
:1007c0000086200011c0b300014878008460a900b1
:1007d0000080fa004f03be004f02be004f01be0072
:1007e0004f00be003600f900004006003600f80059
:1007f000809fbe00829fbe00849fbe00869fbe0079
:100800000000fa008620a9004110800000082000a6
:10081000008060000000e0000800320008e2a9004b
:100820000828ef0070408000200090008000eb005e
:10083000010878000e28ef002001370040408000ba
:100840008000eb00c200200003002000820f500057
:10085000838f58000d013e00006001000c0037003e
:10086000a80037003900370075003700ac003700aa
:1008700003013700d8003700e900370000013700d6
:10088000eb0037000101370034003700500037001b
:100890000080200020009000620060000000e00066
:1008a00003013a0000802000100090007040880092
:1008b0000080200010009000104078000ae8b70087
:1008c0000080200010009000100090006040880020
:1008d0000080200010009000e60040000080200012
:1008e00011009800008020009000900040852000ba
:1008f000808f500003003a0000802000e184200037
:100900001100980000802000a00090000100a100cc
:1009100021009800008020009000900000802000be
:1009200010007800808f500004003a000080200002
:10093000a00090000110a000210098000602a8006d
:100940003000200040408800dc0037000622a8006c
:100950003000200040408800d8003700411080005f
:1009600000002800008060000000e0000800320065
:1009700000802000604090008040e800008020005f
:10098000614098004000200000020700cb003700c3
:10099000804080008000d100f00f200000806000c7
:1009a00010108800804080006100600000407800e6
:1009b0000004e00003003200c00020004040880036
:1009c000be0037004000200040408800bb003700d8
:1009d0004110800000002800008060000000e0005e
:1009e0000800320000802000604090008040e80055
:1009f000008020006140980040002000e3010700d3
:100a0000ae0037000622a800804080004800de00cb
:100a1000e6006000000f20000100700080408800a8
:100a2000804080000000a0008040880010c0b3001b
:100a300012e8b70030002000404088009f003700d7
:100a400012c8bf00e14f50000a0032006040800031
:100a500010007800804088006040800020009000f6
:100a6000a0408800604080002040900016e8b70059
:100a7000010037001268ef0081408000f00f200075
:100a8000808f500005003a008040800010108800e0
:100a9000100020004040880088003700814080001e
:100aa000f00f2000808f5000090036008040800049
:100ab0004800de00e6006000000f2000010070002a
:100ac00010108800b0002000404088007b003700f4
:100ad000804080001010880080408000610060002d
:100ae000004078000004e0000300320060002000b5
:100af00040408800710037004000200040408800de
:100b00006e00370040108000610060000000e000cf
:100b100069003a000602a8008b0107006700370051
:100b20004110800000002800008060000000e0000c
:100b30000900320000802000604090008040e80002
:100b4000008020006140980009e2a90050002000c8
:100b50008e0107005900370016c8bf008080fb00d7
:100b60008100e900cf08de00814078000040e90004
:100b700016e8b7000104e000100032006040800079
:100b800066004000604088000ac8bf000040e900dd
:100b90000ae8b7000ac8bf000004e00003003a00fa
:100ba0002000200079010700440037000622a80039
:100bb000300020004040880040003700a040800006
:100bc000904078008180fb00111088000000e80050
:100bd000a040880039003700411080000000280044
:100be000008060000000e00009003200008020006a
:100bf000604090008040e800008020006140980044
:100c0000400020006101070009e2a9002b00370025
:100c10000662a800900020004040880027003700ae
:100c200090002000404088000662a80023003700a2
:100c3000a0408000011080008140780001487800c9
:100c40000000e800a040880016c8bf000040e9008e
:100c500016e8b70016c8bf000004e0000400320028
:100c600006a2a90070002000404088000200370062
:100c700006a2a800340107000682a8000f00370072
:100c800020002000410107000c00370000802000f8
:100c9000604090008040e8000080200061409800a3
:100ca0006000200039010700000000000300370049
:100cb0000000000001003700000000000080fa0082
:100cc0004f03be004f02be004f01be004f00be00ea
:100cd0003600f900004006000040da000000fe0087
:040ce000000005000b
:020000040000fa
:100ce4000000fa00808120000080fa000000060065
:100cf4000000fa00c08120000080fa000000060015
:100d04000000fa00c04080004800de00e1406000be
:100d1400501680004c00de006140600080cf50001f
:100d2400160032005116800000002100008060008f
:100d34000000e00011003200511680000000220083
:100d44000080600000f0a7000000ea000000e90055
:100d54004f00de00004078000080fb00610060006e
:100d64004900dd00c14080000190a1000100700035
:100d7400c04088002008a8004e003700c040800012
:100d84004a00de00e1406000501680004e00de00a4
:100d94006140600080cf500011003a00511680007d
:100da400000024000080600000f0a7000000ea00ba
:100db4000000e9004f00de00004078000080fb00e6
:100dc400610060004a00dd00c140800001a0a10074
:100dd40001007000c04088002028a80035003700ba
:100de400e04080004800de00e140600050168000d2
:100df4004f00de000040780080cf50001500320024
:100e04005116800000002800008060000000e0000f
:100e140010003200501780007000600000f0a7003e
:100e24000000ea000000e9004f00de000040780006
:100e34000080fb00610060004900dd00e1408000ab
:100e44000190a10001007000e04088002048a80043
:100e540018003700e04080004a00de00e1406000f6
:100e6400501780004500de006140600080cf5000d4
:100e740010003a005117800000022000008060003a
:100e840000f0a7000000ea000000e9004f00de00c7
:100e9400004078000080fb00610060004a00dd0033
:100ea400e140800001a0a10001007000e040880042
:100eb4002068a800501680004c00de0061406000ed
:100ec4000080fb00610060004800dd00c14080003c
:100ed4000180a10001007000c0408800501680000d
:100ee4004f00de00004078000080fb0061006000dd
:100ef4004800dd00e14080000180a1000100700095
:100f0400e04088000080fa00000006000000fa00bb
:100f1400206820005c020700501680004c00de00b0
:100f2400614060000080fb00610060004800dd005b
:100f3400c14080000180a10001007000c040880011
:100f440051168000000024000080600000f0a7001b
:100f54000000ea000000e9004f00de0000407800d5
:100f64000080fb00610060004a00dd00c140800099
:100f740001a0a10001007000c0408800501680004c
:100f84004f00de00004078000080fb00610060003c
:100f94004800dd00e14080000180a10001007000f4
:100fa400e0408800511780000002200000806000ab
:100fb40000f0a7000000ea000000e9004f00de0096
:100fc400004078000080fb00610060004a00dd0002
:100fd400e140800001a0a10001007000e040880011
:100fe400020007000080fa00000006000000fa007a
:100ff40020c8bf00614060000004e000020032002d
:10100400808120001400070020c8bf0064406000f5
:101014000004e00002003200c08120000e0007003e
:101024000080fa00000006000000fa002008a90071
:101034002028a9002048a9002068a9000080fa00ff
:10104400000006000000fa001a28ef001e28ef0036
:101054000080fa00000006000200fa00000f780089
:101064001e007800900078000020200000806000be
:101074000000e000060032001e007800100090001e
:101084008000e8001e007800110098000500370079
:101094001e007800100090008000e9001e00780017
:1010a400110098001e0078009e0078001141900005
:1010b400024878000080fa00000006000000fa00f0
:1010c40000802000e18420001100980000802000ae
:1010d400e18420000108780000802000a000900036
:1010e4000110a0002100980000802000a0009000c2
:1010f4000100a10021009800008020008040eb0046
:101104006140980030012000201088000000280071
:10111400301088000822ef008620a9009620a8003d
:101124000080fa00000006000200fa00008020009f
:10113400e0409000014f78001e4078000080fa00e3
:10114400000006000000fa006040800066004000d5
:10115400604088000ac8bf000040e9000ae8b70000
:101164000ac8bf000004e00003003a005000200059
:1011740040408800020037002000200040408800e2
:101184000080fa00000006000200fa00000f780058
:101194000642a80070408000200090000000e0009b
:1011a4000300320070408000200090001e08780088
:1011b4000828ef000080fa00000006000800fa008a
:1011c400000f780021479800220798003307980001
:1011d4000080200020009000610060000000e0001a
:1011e4000a003a00ae0190002e4190009e00780063
:1011f400a0852000770007003e019000a185200013
:1012040010c0b3001f000700030037003e00900029
:101214008000eb00010878000080fa00000006005e
:101224000800fa00000f7800214798002207980070
:1012340033079800008020002000900061006000c7
:101244000000e0000a003a00ae0190002e41900038
:101254009e00780040852000460007003e01900073
:101264004185200010c0b3000600070003003700ca
:101274003e0090008000eb00010878000080fa0036
:10128400000006000600fa00004f780011079800dd
:101294002207980000802000200090006100600078
:1012a4000000e0002e003a002e0090001100200003
:1012b4000108780000802000100078009e00900053
:1012c4001100980000802000100078001e4878006b
:1012d4000080200010007800ae00900021009800eb
:1012e4000080200010007800e6004000008020000c
:1012f40001087800008020009000780040852000dc
:10130400808f500003003a0000802000e184200018
:101314000108780000802000a00090000110a100c6
:1013240021009800008020009000900000802000a0
:1013340010007800808f500004003a0000802000e4
:10134400a00090000100a00021009800404080000f
:101354000000e00005003a008620a80003003700e2
:101364002e0090008000eb00010878000080fa0055
:10137400000006000800fa00000f7800110798002a
:1013840042479800330798003e0090000000400058
:10139400800078001e007800010878001e007800a4
:1013a40010007800800078000100a0001e00780082
:1013b400010878001e007800ce409000214098007b
:1013c4001e0078009e009000210098000080fa0022
:1013d400000006000800fa00000f780011079800ca
:1013e40042479800330798003e00900000004000f8
:1013f400800078001e007800010878001e00780044
:10140400ce409000214098001e0078009e0090007d
:10141400210098000080fa00000006000000fa0095
:1014240000802000200090006200600000f0a7000f
:101434000000ea000000ea004f00de0000407800ef
:101444000080fa00000006000000fa00008020007e
:10145400200090006100600000f0a7000000ea0096
:101464000000ea004f00de00004078000080fa002f
:10147400000006000000fa006b0007006101b900db
:101484001041800021418000020040008380480018
:101494001041880021418800690007000080fa009b
:1014a400000006000000fa00104180002141800085
:1014b4000080fa00000006000000fa0010418000dd
:1014c400214180004609dd004a00de000000710071
:1014d400ca08de00000078000080fa000000060060
:1014e4000000fa002228ef002428ef000021ef007a
:1014f400f07c2000100888000000280020088800e4
:10150400304180000000e00002003a00e0ac20001e
:10151400240007008460a9009460a80000862000cd
:101524008040eb00014878000080fa0000000600cb
:101534000200fa00000f78009e007800110888006d
:10154400008620008040eb00014878000080fa000b
:10155400000006000000fa00100880000080fa0075
:10156400000006000200fa00000f78009e007800d8
:1015740001088800008620008040eb0001487800c4
:101584000080fa00000006000000fa000008800055
:101594000080fa00000006000000fa000080fa0053
:1015a400000006000200fa00000f78009460a90011
:1015b4009e007800314188009460a8000080fa0001
:1015c400000006000000fa00008620008040eb00c6
:1015d400014878009460a80005e1a8000080fa00a2
:1015e400000006000000fa0005e1a9009460a900cb
:1015f4000080fa00000006000200fa0000862000c5
:10160400104f78001e4078000004e0000300320010
:10161400008620008040eb00014878001e407800de
:101624000080fa00000006000000fa001086200086
:10163400104078000080fb000080fa0000000600e3
:101644000000fa00108620008040eb00014878007a
:101654000080fa00000006000600fa00000f78007f
:101664001107980042479800000000006041800084
:10167400e10f5000fdff320010002000604188009f
:10168400c38220001e017800ce4090001e0090000e
:10169400cafe07000080fa00000006000600fa00f7
:1016a400000f7800110798004247980000000000de
:1016b40060418000e10f5000fdff3200c382200032
:1016c4001e017800ce4090001e009000d4fe07005a
:1016d4000080fa00000006000e00fa0060002000fe
:1016e400604188000040eb001047980030c3b3000d
:1016f400204798000040eb0030479800c0c0b3007a
:10170400404798000040eb00504798000040eb0031
:1017140060479800c4ff0700004f780000000000f5
:10172400c1ff07009e80fb00010050000000e000a4
:10173400fbff3400e8004700020009008018eb00ba
:10174400f00f20004007980068004700c282200084
:101754008000780010c0b300cafe07000e00e80045
:1017640022c0b30080007800d0032000baff070035
:101774000000000060418000e10f5000fdff3a00ce
:101784000080fa00000006000000fa000080fa0061
:10179400000006000000fa00cc22ef00d422ef0083
:1017a400dc22ef00e422ef00ec22ef00f422ef0051
:1017b400f00f2f00401688000000210080168800da
:1017c400f0fd2000c0168800f00f200000178800ec
:1017d400b00b200040178800c03c20008017880010
:1017e4005620ef005820ef005a20ef005c20ef0055
:1017f4005e20ef006020ef006e20ef007020ef000d
:101804007220ef007420ef007620ef007820ef00c4
:10181400ce22ef00d622ef00de22ef00e622ef0018
:10182400ee22ef00f622ef00f003200010278800dc
:10183400f09d2f0030278800000f200040278800eb
:101844009008200050278800003c20006027880072
:10185400a804a8006380a8006440a80065c0a8008c
:101864006600a80000c42000070007008660a900e5
:101874009660a8000080fa00000006000000fa004c
:101884000080fa00000006000200fa00000f780051
:101894009660a9009e007800414188009660a800e7
:1018a4000080fa00000006000200fa00000f780031
:1018b4001e007800f4ff07000080fa000000060014
:020000040000fa
:1018c4002808000002000000800000002e0800002c
:1018d40020000000800000002a0800000200000030
:1018e40082000000ffff000060080000020000000a
:1018f40080000000220800000600000080000000b4
:10190400180800000a000000800000002c080000f5
:1019140002000000800000004e08000012000000d9
:101924008000000000080000180000008000000093
:0419340000000000af
:020000040000fa
:101938000000fa0000102300303a88004827ef0022
:101948004e27ef007027ef007227ef007427ef0093
:101958007627ef007827ef007a27ef007c27ef0043
:101968007200200080072000a109200033742000a5
:101978008049780081497800824978000001eb00ad
:10198800600420007105200023742000804978003d
:1019980081497800824978000080fa00000006003a
:1019a8000000fa0061058000f0f82f000080600058
:1019b8000040a000600588006105800080ff2f00be
:1019c800008060000000a0006005880061058000bc
:1019d800f0ff28000080600000c0a00060058800bb
:1019e80021058000f0ff28000080600000c0a000f2
:1019f800200588000080fa00000006000800fa00b0
:101a08001c00070040fd070032ff0700b3fc070079
:101a1800000f7800b5fc0700100798006000b800b8
:101a28002007980031079800dca2a9006efd070086
:101a38008ffe07007bfd0700dca2a8000140fe0026
:101a4800f9ff37000200fa00000f78009e007800c6
:101a580051418800ffff37000000fa00e0822000b3
:101a68008007780060842000000188000080fa0068
:101a7800000006000000fa0045ff0700c8ff070045
:101a8800abff07008cfd070094fe07000080fa00fa
:041a98000000060044
:020000040000fa
:020000040002f8
:04aff000ffbf00009f
:020000040000fa
:020000040002f8
:04aff400fffe00005c
:020000040000fa
:020000040002f8
:04aff8001f670000cf
:020000040000fa
:020000040002f8
:04affc003f3e0000d4
:00000001FF
