:020000040000fa
:080000000002040000000000f2
:020000040000fa
:040008009806000056
:020000040000fa
:04000c003e030000af
:020000040000fa
:040010008003000069
:020000040000fa
:040014005e03000087
:020000040000fa
:04001800a003000041
:020000040000fa
:04001c009806000042
:020000040000fa
:04002000980600003e
:020000040000fa
:04002400980600003a
:020000040000fa
:040028009806000036
:020000040000fa
:04002c009806000032
:020000040000fa
:04003000980600002e
:020000040000fa
:04003400c003000005
:020000040000fa
:040038009806000026
:020000040000fa
:04003c009806000022
:020000040000fa
:04004000980600001e
:020000040000fa
:04004400980600001a
:020000040000fa
:040048009806000016
:020000040000fa
:04004c009806000012
:020000040000fa
:04005000980600000e
:020000040000fa
:04005400980600000a
:020000040000fa
:040058009806000006
:020000040000fa
:04005c009806000002
:020000040000fa
:0400600098060000fe
:020000040000fa
:0400640098060000fa
:020000040000fa
:0400680098060000f6
:020000040000fa
:04006c00f603000097
:020000040000fa
:0400700098060000ee
:020000040000fa
:040074001003000075
:020000040000fa
:0400780098060000e6
:020000040000fa
:04007c0098060000e2
:020000040000fa
:0400800098060000de
:020000040000fa
:0400840098060000da
:020000040000fa
:0400880098060000d6
:020000040000fa
:04008c0098060000d2
:020000040000fa
:0400900098060000ce
:020000040000fa
:0400940098060000ca
:020000040000fa
:0400980098060000c6
:020000040000fa
:04009c0098060000c2
:020000040000fa
:0400a00098060000be
:020000040000fa
:0400a40098060000ba
:020000040000fa
:0400a80098060000b6
:020000040000fa
:0400ac0098060000b2
:020000040000fa
:0400b00098060000ae
:020000040000fa
:0400b40098060000aa
:020000040000fa
:0400b80098060000a6
:020000040000fa
:0400bc0098060000a2
:020000040000fa
:0400c000980600009e
:020000040000fa
:0400c400980600009a
:020000040000fa
:0400c8009806000096
:020000040000fa
:0400cc009806000092
:020000040000fa
:0400d000980600008e
:020000040000fa
:0400d400980600008a
:020000040000fa
:0400d8009806000086
:020000040000fa
:0400dc009806000082
:020000040000fa
:0400e000980600007e
:020000040000fa
:0400e400980600007a
:020000040000fa
:0400e8009806000076
:020000040000fa
:0400ec009806000072
:020000040000fa
:0400f000980600006e
:020000040000fa
:0400f400980600006a
:020000040000fa
:0400f8009806000066
:020000040000fa
:0400fc009806000062
:020000040000fa
:04010000980600005d
:020000040000fa
:040104009806000059
:020000040000fa
:040108009806000055
:020000040000fa
:04010c009806000051
:020000040000fa
:04011000980600004d
:020000040000fa
:040114009806000049
:020000040000fa
:040118009806000045
:020000040000fa
:04011c009806000041
:020000040000fa
:04012000980600003d
:020000040000fa
:040124009806000039
:020000040000fa
:040128009806000035
:020000040000fa
:04012c009806000031
:020000040000fa
:04013000980600002d
:020000040000fa
:040134009806000029
:020000040000fa
:040138009806000025
:020000040000fa
:04013c009806000021
:020000040000fa
:04014000980600001d
:020000040000fa
:040144009806000019
:020000040000fa
:040148009806000015
:020000040000fa
:04014c009806000011
:020000040000fa
:04015000980600000d
:020000040000fa
:040154009806000009
:020000040000fa
:040158009806000005
:020000040000fa
:04015c009806000001
:020000040000fa
:0401600098060000fd
:020000040000fa
:0401640098060000f9
:020000040000fa
:0401680098060000f5
:020000040000fa
:04016c0098060000f1
:020000040000fa
:0401700098060000ed
:020000040000fa
:0401740098060000e9
:020000040000fa
:0401780098060000e5
:020000040000fa
:04017c0098060000e1
:020000040000fa
:040180006c06000009
:020000040000fa
:0401840098060000d9
:020000040000fa
:0401880098060000d5
:020000040000fa
:04018c0098060000d1
:020000040000fa
:0401900098060000cd
:020000040000fa
:0401940098060000c9
:020000040000fa
:0401980098060000c5
:020000040000fa
:04019c0098060000c1
:020000040000fa
:0401a00098060000bd
:020000040000fa
:0401a40098060000b9
:020000040000fa
:0401a80098060000b5
:020000040000fa
:0401ac0098060000b1
:020000040000fa
:0401b00098060000ad
:020000040000fa
:0401b40098060000a9
:020000040000fa
:0401b80098060000a5
:020000040000fa
:0401bc0098060000a1
:020000040000fa
:0401c000980600009d
:020000040000fa
:0401c4009806000099
:020000040000fa
:0401c8009806000095
:020000040000fa
:0401cc009806000091
:020000040000fa
:0401d000980600008d
:020000040000fa
:0401d4009806000089
:020000040000fa
:0401d8009806000085
:020000040000fa
:0401dc009806000081
:020000040000fa
:0401e000980600007d
:020000040000fa
:0401e4009806000079
:020000040000fa
:0401e8009806000075
:020000040000fa
:0401ec009806000071
:020000040000fa
:0401f000980600006d
:020000040000fa
:0401f4009806000069
:020000040000fa
:0401f8009806000065
:020000040000fa
:0401fc009806000061
:020000040000fa
:040208009806000054
:020000040000fa
:04020c003e030000ad
:020000040000fa
:040210008003000067
:020000040000fa
:040214005e03000085
:020000040000fa
:04021800a00300003f
:020000040000fa
:04021c009806000040
:020000040000fa
:04022000980600003c
:020000040000fa
:040224009806000038
:020000040000fa
:040228009806000034
:020000040000fa
:04022c009806000030
:020000040000fa
:04023000980600002c
:020000040000fa
:04023400c003000003
:020000040000fa
:040238009806000024
:020000040000fa
:04023c009806000020
:020000040000fa
:04024000980600001c
:020000040000fa
:040244009806000018
:020000040000fa
:040248009806000014
:020000040000fa
:04024c009806000010
:020000040000fa
:04025000980600000c
:020000040000fa
:040254009806000008
:020000040000fa
:040258009806000004
:020000040000fa
:04025c009806000000
:020000040000fa
:0402600098060000fc
:020000040000fa
:0402640098060000f8
:020000040000fa
:0402680098060000f4
:020000040000fa
:04026c00f603000095
:020000040000fa
:0402700098060000ec
:020000040000fa
:040274001003000073
:020000040000fa
:0402780098060000e4
:020000040000fa
:04027c0098060000e0
:020000040000fa
:0402800098060000dc
:020000040000fa
:0402840098060000d8
:020000040000fa
:0402880098060000d4
:020000040000fa
:04028c0098060000d0
:020000040000fa
:0402900098060000cc
:020000040000fa
:0402940098060000c8
:020000040000fa
:0402980098060000c4
:020000040000fa
:04029c0098060000c0
:020000040000fa
:0402a00098060000bc
:020000040000fa
:0402a40098060000b8
:020000040000fa
:0402a80098060000b4
:020000040000fa
:0402ac0098060000b0
:020000040000fa
:0402b00098060000ac
:020000040000fa
:0402b40098060000a8
:020000040000fa
:0402b80098060000a4
:020000040000fa
:0402bc0098060000a0
:020000040000fa
:0402c000980600009c
:020000040000fa
:0402c4009806000098
:020000040000fa
:0402c8009806000094
:020000040000fa
:0402cc009806000090
:020000040000fa
:0402d000980600008c
:020000040000fa
:0402d4009806000088
:020000040000fa
:0402d8009806000084
:020000040000fa
:0402dc009806000080
:020000040000fa
:0402e000980600007c
:020000040000fa
:0402e4009806000078
:020000040000fa
:0402e8009806000074
:020000040000fa
:0402ec009806000070
:020000040000fa
:0402f000980600006c
:020000040000fa
:0402f4009806000068
:020000040000fa
:0402f8009806000064
:020000040000fa
:0402fc009806000060
:020000040000fa
:04030000980600005b
:020000040000fa
:040304009806000057
:020000040000fa
:040308009806000053
:020000040000fa
:04030c00980600004f
:020000040000fa
:04031000980600004b
:020000040000fa
:040314009806000047
:020000040000fa
:040318009806000043
:020000040000fa
:04031c00980600003f
:020000040000fa
:04032000980600003b
:020000040000fa
:040324009806000037
:020000040000fa
:040328009806000033
:020000040000fa
:04032c00980600002f
:020000040000fa
:04033000980600002b
:020000040000fa
:040334009806000027
:020000040000fa
:040338009806000023
:020000040000fa
:04033c00980600001f
:020000040000fa
:04034000980600001b
:020000040000fa
:040344009806000017
:020000040000fa
:040348009806000013
:020000040000fa
:04034c00980600000f
:020000040000fa
:04035000980600000b
:020000040000fa
:040354009806000007
:020000040000fa
:040358009806000003
:020000040000fa
:04035c0098060000ff
:020000040000fa
:0403600098060000fb
:020000040000fa
:0403640098060000f7
:020000040000fa
:0403680098060000f3
:020000040000fa
:04036c0098060000ef
:020000040000fa
:0403700098060000eb
:020000040000fa
:0403740098060000e7
:020000040000fa
:0403780098060000e3
:020000040000fa
:04037c0098060000df
:020000040000fa
:040380006c06000007
:020000040000fa
:0403840098060000d7
:020000040000fa
:0403880098060000d3
:020000040000fa
:04038c0098060000cf
:020000040000fa
:0403900098060000cb
:020000040000fa
:0403940098060000c7
:020000040000fa
:0403980098060000c3
:020000040000fa
:04039c0098060000bf
:020000040000fa
:0403a00098060000bb
:020000040000fa
:0403a40098060000b7
:020000040000fa
:0403a80098060000b3
:020000040000fa
:0403ac0098060000af
:020000040000fa
:0403b00098060000ab
:020000040000fa
:0403b40098060000a7
:020000040000fa
:0403b80098060000a3
:020000040000fa
:0403bc00980600009f
:020000040000fa
:0403c000980600009b
:020000040000fa
:0403c4009806000097
:020000040000fa
:0403c8009806000093
:020000040000fa
:0403cc00980600008f
:020000040000fa
:0403d000980600008b
:020000040000fa
:0403d4009806000087
:020000040000fa
:0403d8009806000083
:020000040000fa
:0403dc00980600007f
:020000040000fa
:0403e000980600007b
:020000040000fa
:0403e4009806000077
:020000040000fa
:0403e8009806000073
:020000040000fa
:0403ec00980600006f
:020000040000fa
:0403f000980600006b
:020000040000fa
:0403f4009806000067
:020000040000fa
:0403f8009806000063
:020000040000fa
:0403fc00980600005f
:020000040000fa
:100400000fa320000e7f22000e01880000000000d4
:10041000000020000000e000020032000001200087
:100420002002880014000700430207000000e000db
:1004300003003a00203a22000100200002003700a9
:100440000000200001002000810f70000100320038
:1004500014000700000020000000e000020032004d
:100460000000020000000000ea240200000000007a
:100470000040da000000fe004440a900000b20000c
:100480000000e000030032000020200090018800fe
:100490004440a800000006008a1f78008b1f7800e7
:1004a00000000600a1028800800478000000eb0034
:1004b0001f003700e284440054a0b4009905ba003c
:1004c000e284440054a0b4009906ba00e2844400d7
:1004d00054a0b4000006eb00476fde00fd07b20039
:1004e000ae018800636ce10003003a00eaff0700f8
:1004f0000000eb000e003700606ce10008003a00dd
:10050000004deb000a05e800020039003420ec0041
:100510000af0a0008b05e900f9ff3e000400370057
:100520006168e100010032000086eb000b0007006b
:1005300019c7ba001905ba000e04e00003003a001a
:100540000a00e000dbff3a0000000600fe07b200f0
:10055000ae0288008a047800f5ff37000cd0a300b3
:10056000e20f4d001c00390089027800354dba00b9
:100570000a05e800020039003420ec000af0a0006f
:100580008b05e9000f003200254dba000a05e8008e
:10059000020039003420ec000af0a0008b05e900cd
:1005a000080032000c00e0000600320015cdba0051
:1005b0000a05e800020039003420ec000af0a0002f
:1005c0008b05e9008984e80054a0b4000b00e0002a
:1005d000e2ff3a00000006009902ba00055d7800cb
:1005e0008b05e900f7ff3200c82ade00055d7800c0
:1005f0008b05e900f3ff32000c00e000f1ff320050
:1006000019ddba00eeff370080230400000000006f
:100610001022040000000000b21c040000000000d2
:100620003600f800809fbe00829fbe00849fbe00ff
:10063000869fbe000000fa00300480006800600061
:100640000000e00006003200e04280000000e00010
:1006500002003200e0428000000001008660a90034
:100660000080fa004f03be004f02be004f01be00e3
:100670004f00be003600f900004006003600f800ca
:10068000809fbe00829fbe00849fbe00869fbe00ea
:100690000000fa008020a9000000eb00df10070036
:1006a0000080fa004f03be004f02be004f01be00a3
:1006b0004f00be003600f900004006003600f8008a
:1006c000809fbe00829fbe00849fbe00869fbe00aa
:1006d0000000fa00d61007008040a900100020009a
:1006e000ce1007000080fa004f03be004f02be008c
:1006f0004f01be004f00be003600f900004006006a
:100700003600f800809fbe00829fbe00849fbe001e
:10071000869fbe000000fa008060a9002000200033
:10072000be1007000080fa004f03be004f02be005b
:100730004f01be004f00be003600f9000040060029
:100740003600f800809fbe00829fbe00849fbe00de
:10075000869fbe000000fa008080a90030002000c3
:10076000ae1007000080fa004f03be004f02be002b
:100770004f01be004f00be003600f90000400600e9
:100780003600f800809fbe00829fbe00849fbe009e
:10079000869fbe000000fa00004380000000e000d9
:1007a000020032000043800000000100109720008a
:1007b000104078008040e800109720000148780041
:1007c0000097200011c0b300014878008460a900a0
:1007d0000080fa004f03be004f02be004f01be0072
:1007e0004f00be003600f900004006003600f80059
:1007f000809fbe00829fbe00849fbe00869fbe0079
:100800000000fa008620a9004110800000082000a6
:10081000008060000000e0000800320008e2a9004b
:100820002628ef0060418000200090008000eb004f
:10083000010878002c28ef002001370030418000ab
:100840008000eb00c200200003002000820f500057
:10085000838f58000d013e00006001000c0037003e
:10086000a80037003900370075003700ac003700aa
:1008700003013700d8003700e900370000013700d6
:10088000eb0037000101370034003700500037001b
:10089000e081200020009000620060000000e00085
:1008a00003013a00e08120001000900060418800c0
:1008b000e0812000100090001040780028e8b70088
:1008c000e08120001000900010009000504188004e
:1008d000e081200010009000e6004000e081200050
:1008e00011009800e08120009000900060952000a9
:1008f000808f500003003a00e08120000195200025
:1009000011009800e0812000a00090000100a100eb
:1009100021009800e081200090009000e0812000fc
:1009200010007800808f500004003a00e081200021
:10093000a00090000110a000210098000602a8006d
:100940003000200030418800dc0037000622a8007b
:100950003000200030418800d8003700411080006e
:1009600000002800008060000000e0000800320065
:10097000e0812000604090008040e800e08120009d
:100980006140980040002000180d0700cb003700a0
:10099000704180008000d100f00f200000806000d6
:1009a00010108800704180006100600000407800f5
:1009b0000004e00003003200c00020003041880045
:1009c000be0037004000200030418800bb003700e7
:1009d0004110800000002800008060000000e0005e
:1009e00008003200e0812000604090008040e80074
:1009f000e08120006140980040002000fb0c0700cf
:100a0000ae0037000622a800704180004800de00da
:100a1000e6006000000f20000100700070418800b7
:100a2000704180000000a0007041880010c0b30039
:100a300030e8b70030002000304188009f003700c8
:100a400030c8bf00e14f50000a0032005041800022
:100a50001000780070418800504180002000900014
:100a600090418800504180002040900034e8b70059
:100a7000010037003068ef0071418000f00f200066
:100a8000808f500005003a007041800010108800ef
:100a9000100020003041880088003700714180003c
:100aa000f00f2000808f5000090036007041800058
:100ab0004800de00e6006000000f2000010070002a
:100ac00010108800b0002000304188007b00370003
:100ad000704180001010880070418000610060004b
:100ae000004078000004e0000300320060002000b5
:100af00030418800710037004000200030418800fc
:100b00006e00370040108000610060000000e000cf
:100b100069003a000602a800a30c0700670037002e
:100b20004110800000002800008060000000e0000c
:100b300009003200e0812000604090008040e80021
:100b4000e08120006140980009e2a90050002000e7
:100b5000a60c07005900370034c8bf008080fb0096
:100b60008100e900cf08de00814078000040e90004
:100b700034e8b7000104e00010003200504180006a
:100b8000660040005041880028c8bf000040e900ce
:100b900028e8b70028c8bf000004e00003003a00be
:100ba00020002000910c0700440037000622a80016
:100bb0003000200030418800400037009041800024
:100bc000904078008180fb00111088000000e80050
:100bd0009041880039003700411080000000280053
:100be000008060000000e00009003200e081200089
:100bf000604090008040e800e08120006140980063
:100c000040002000790c070009e2a9002b00370002
:100c10000662a800900020003041880027003700bd
:100c200090002000304188000662a80023003700b1
:100c300090418000011080008140780001487800d8
:100c40000000e8009041880034c8bf000040e9007f
:100c500034e8b70034c8bf000004e00004003200ec
:100c600006a2a90070002000304188000200370071
:100c700006a2a8004c0c07000682a8000f0037004f
:100c800020002000590c07000c003700e0812000f4
:100c9000604090008040e800e081200061409800c2
:100ca00060002000510c0700000000000300370026
:100cb0000000000001003700000000000080fa0082
:100cc0004f03be004f02be004f01be004f00be00ea
:100cd0003600f900004006003600f800809fbe0094
:100ce000829fbe00849fbe00869fbe003200f80037
:100cf0003400f80010002000a0018800002020002f
:100d0000900188000000fa00eb0007000080fa0064
:100d10003400f9003200f9004f03be004f02be005c
:100d20004f01be004f00be003600f9000040060033
:100d30000040da000000fe0000000500800178009d
:100d400002003700b15978000201e9000200e0001a
:100d5000fcff3a0000000600800178000200370026
:100d6000815978000201e9000200e000fcff3a002e
:040d70000000060079
:020000040000fa
:100d74001201000000020000020000000008000050
:100d8400d80400000a000000000100000102000075
:100d940000010000090200004300000002010000fd
:100da40000c000003209000004000000000100003f
:100db40002020000010000000524000000100000f1
:100dc40001040000240200000205000024060000c3
:100dd40000010000052400000100000001070000dc
:100de40005810000030a000000020000090400005d
:100df40001000000020a00000000000000070000db
:100e04000502000002400000000000000705000089
:100e14008202000040000000000000000403000003
:100e240009040000340300004d00000069000000c4
:100e340063000000720000006f0000006300000007
:100e4400680000006900000070000000200000003d
:100e5400540000006500000063000000680000000a
:100e64006e0000006f0000006c0000006f000000c6
:100e74006700000079000000200000004900000025
:100e84006e000000630000002e0000001a03000042
:100e940050000000720000006f00000064000000b9
:100ea40075000000630000007400000020000000d2
:100eb4004e000000610000006d00000065000000ad
:100ec400cc860000108700001487000048870000cb
:020000040000fa
:100ed4000200fa009ec0a900e8e2a8000080eb002e
:100ee400702488000080eb0050248800aa24ef00be
:100ef400420020008000eb00c04a200095ff07005c
:100f04002000200030258800a824ef008644a90092
:100f1400f009200080248800f00920006024880063
:100f240082c4a8008804a80000a020004800de00b5
:100f3400c02488000040eb00004f78000700370011
:100f44001e80fb00c200dd0000a0200000814000e4
:100f54006000b8000089be001e4fe8001e40780003
:100f6400eb4f5000f6ff36009424a8009624ef00bf
:100f740094a4a9009424a90080002000502488008f
:100f8400e09020008040eb00014878004091200070
:100f94008040eb0001487800509120009040780098
:100fa400e0c0600001487800609120009040780023
:100fb400e0c06000014878005024800068006000b0
:100fc4000000e000ecff3a0010c0b30013e8b700e3
:100fd40010c0b30014e8b7001568ef001668ef00fe
:100fe4000d68ef000040eb00004f7800150037005b
:100ff4001e80fb00800040006090200000804000c4
:101004008000eb00010878001e80fb008000400097
:1010140000902000008040008000eb000108780070
:101024001e80fb00919120000041eb00827078004b
:101034001e80fb00c19120000041eb00827078000b
:101044001e4fe8001e407800e24f5000e8ff3600d3
:1010540080a0200030488800d0002000502588005f
:10106400f09120001050880000a0200081c0b3003f
:101074000148780010a0200041c0b3000148780066
:1010840010a0200010407800804078000174a00077
:1010940010a02000014878000268ef001828ef0033
:1010a4001a28ef001c68ef000028ef000080fa0007
:1010b400000006000200fa0000408000e10f50002a
:1010c4000b003a00a124800000042000008060008e
:1010d4000000e00006003a000080eb005024880085
:1010e4008c04a8008c84a800200020000040880004
:1010f40000248000700060000000e000070032005f
:1011040010248000700060000000e0000300320042
:101114000001200000248800bc0407004024800053
:10112400620060000000e000020032008ec0a900ee
:10113400a100370050248000610060000000e0003e
:101144000a00320060248000610060000000e000ba
:10115400060032005eff07009ec0a8004000200089
:101164000040880010002000502488005024800093
:10117400700060000000e000050032006024800080
:10118400700060000000e0000100320092040700db
:101194000124800000042000008060000000e000c2
:1011a400030032000004200000248800ee0607003b
:1011b40050248000640060000000e000140032004d
:1011c40060248000640060000000e000040032003d
:1011d400120020008000eb00300720008a0d070079
:1011e400400020005024880011c8bf000004e00023
:1011f4000300320011c8bf000040e90011e8b70045
:1012040011c8bf000004e00001003a00a301070078
:101214005124800000082000008060000000e000ed
:101224000600320061248000000820000080600075
:101234000000e000010032004b040700502480004d
:10124400620060000000e0000c00320060248000b6
:10125400620060000000e00008003200120020007c
:101264008000eb00f0ff2700670d07000080eb0013
:101274007024880020002000502488000040800052
:10128400e30f500002003e008ec0a9004a00370060
:1012940060248000680060000000e0004500320027
:1012a4000040eb00004f78003d00370050248000e0
:1012b400680060000000e0003d00320090248000df
:1012c400004078000ee8b7000ec8bf000080fb00a5
:1012d4004400de00004078000fe8b70080002000e2
:1012e400502488000ec8bf00684060000004e0007d
:1012f40011003a000fc8bf000081fb008080fb0092
:10130400c0912000008040009040780061c06000df
:101314000004a200e1406000c091200000004100f0
:10132400e1c06000104178000204a1008140710016
:1013340001487800100037000fc8bf000081fb008f
:101344008080fb0090912000008040009040780055
:1013540061c060000004a200e140600090912000a0
:1013640000004100e1c06000104178000204a100c7
:1013740081407100014878000fc8bf000004e000fc
:1013840002003a002d040700040037000001eb00be
:10139400e1802000200720001b0d07001e4fe800fd
:1013a4001e407800e34f5000c0ff360001003700b4
:1013b400000000008ec0a9000080fa0000000600b2
:1013c4000400fa0020479800314798003e409000fe
:1013d4000080fb00680060000000e00003003200b1
:1013e4008040eb002e4090009b0107003e4090009f
:1013f4000080fb00640060000000e0000300320095
:1014040011c0b3002e40900093010700a14a2000b0
:101414002e4090000080fb0000004000008f400040
:101424001e007800be409000014878000080fa0059
:10143400000006000800fa00204798003147980091
:1014440022079800634798003e4090000004e000a3
:10145400070032002e4090000080fb008000400016
:101464006090200000804000100f780006003700d4
:101474002e4090000080fb0080004000009020007f
:1014840000804000100f78001e0078000000e0008b
:1014940002003a000000eb0037003700ae00900075
:1014a4001e007800110098001e007800ee409000a5
:1014b400014878001e0078001040900002c4b30078
:1014c400824060001e007800114098001e007800e1
:1014d40010409000804078000134a0001e00780085
:1014e400114098001e007800104090008040780061
:1014f4000174a0001e007800114098003e40900046
:101504000004e0000e0032002e4090000080fb003a
:10151400ae4090008180fb0001814000619020007a
:1015240081004100910078000120a20000014000e8
:101534006090200000004100010878000d00370091
:101544002e4090000080fb00ae4090008180fb00a4
:101554000181400001902000810041009100780049
:101564000120a20000014000009020000000410082
:10157400010878001e0078000080fa0000000600d0
:101584000400fa0020479800314798002e4090004c
:101594000004e00017003a003040800081c0b3002e
:1015a4000148780030408000f1912000110098003b
:1015b40030408000c1c0b30011409800304080002a
:1015c40031408000914090000174a00011409800c7
:1015d4003048800041c0b30011409800304880007a
:1015e40031488000914090000174a000114098009f
:1015f4002e0037002e4090000080fb0000004000c9
:10160400800078003e4090000080fb000080400095
:101614004300dd008000780000a02000008f40001f
:101624001e00780010409000804078000124a00043
:101634001e007800114098001e00780010409000b1
:10164400804078000174a0001e00780011409800ca
:101654002e4090000080fb000000400080007800d5
:101664003e4090000080fb00008040004300dd000d
:10167400e400400000a02000008f40001e0078001d
:1016840010409000804078000124a0001e007800e3
:10169400114098001e0078001040900080407800af
:1016a4000174a0001e007800114098000080fa0028
:1016b400000006000200fa00004f7800a124800018
:1016c40000022000008060000000e00051003200b1
:1016d4001e80fb00800040006090200000804000dd
:1016e400100278001e80fb00800040006090200003
:1016f40000804000100078001001be0000042000ab
:101704000100200082027800030178008001780043
:101714000100780083826200000061008000eb0019
:10172400c000dd00000020000001be006128b800f8
:101734000001710081817100028abe001e80fb00dd
:10174400800040006090200000804000100278007b
:101754001e80fb008000400060902000008040005c
:10176400100078001001be000004200001002000d9
:101774000000690081806900008abe001e80fb00b1
:101784009e80fb00018140006190200081004100a7
:10179400910078000120a200000140006090200028
:1017a40000004100010878001e80fb00800040001a
:1017b4006090200000804000900078001e80fb00b4
:1017c40000014000609020000000410010007800fb
:1017d400104090000044b200904098001e80fb002e
:1017e400800040006090200000804000900078005d
:1017f4001e80fb00000140006090200000004100ba
:10180400100078001041900000c4b300004069004b
:10181400904098000080fa00000006000000fa00e2
:101824009424ef008c24ef000028ef000080fa00dd
:10183400000006000000fa00004080000000e00004
:1018440014003a009424ef008c24ef0020002000c0
:1018540030258800a824ef008644a900f009200060
:1018640080248800f00920006024880082c4a80035
:101874009ec0a800010037009404a800a0248000a2
:10188400610060000000e000fbff32001000200057
:10189400004088000080fa00000006000000fa0002
:1018a40013c8bf000004a2000004e00034003200aa
:1018b40010c0b30013e8b70014c8bf000004a200ae
:1018c4000004e0002e00320010c0b30014e8b7009a
:1018d40009c8bf00e24f50000c003a0030488000b5
:1018e4008040eb00014878003048800081c4b30098
:1018f40011409800304880003148800091409000a9
:101904000174a000114098001d00370009c8bf00f1
:10191400e14f50001a003a001068ef0020408000a8
:1019240081c0b3000148780020408000f19120007c
:10193400110098002040800041c0b300114098007d
:101944002040800021408000914090000174a0005c
:101954001140980010c0b30010e8b7003040800078
:1019640081c0b3000148780030408000f19120002c
:10197400110098003040800001c8b3001140980065
:101984000080fa00000006000000fa001568ef006d
:101994001668ef0009c8bf00e24f50000f003a007c
:1019a4003040800081c0b30001487800304080009e
:1019b40071922000110098003040800081c4b3006f
:1019c40011409800304080003140800091409000e8
:1019d4000174a000114098001d00370050922000af
:1019e4001080fb00619220009180fb00c808dd009c
:1019f400010070008000780080488000808f5000d3
:101a040007003100509220001080fb0061922000fa
:101a14009180fb00c808dd00010070008048880048
:101a24009600070030488000719220001100980051
:101a34003048800081c4b3001140980030488000d1
:101a440031488000914090000174a000114098003a
:101a54000080fa00000006000400fa002047980005
:101a64003147980000a02000000f78002e4090001d
:101a74000080fb0000004000800078003e409000a1
:101a84000080fb00008040004300dd001e0f40008a
:101a94001e0078009000780001f0a1000108780091
:101aa4003e4090000004e00007003a002e40900001
:101ab4000080fb0080004000009020000080400077
:101ac4001e087800060037002e4090000080fb00be
:101ad4008000400060902000008040001e087800d4
:101ae4001e0078009000780001e0a1000108780051
:101af4009e007800648040009000780001e0a0001f
:101b0400010878000080fa00000006000000fa00d6
:101b140094a4a9007148800000082000008060009f
:101b24000000e00027003a00409120009040780037
:101b340000c8b30000c060000004e0000a003200e6
:101b440020c0b30009e8b70016c8bf000004a20013
:101b54000004e000010032008bff07001468ef006e
:101b64001368ef00430037003040800081c0b300a9
:101b74000148780030408000f19120001100980065
:101b840030408000c1c0b300114098003040800054
:101b940031408000914090000174a00011409800f1
:101ba4003048800041c0b3001140980030488000a4
:101bb40031488000914090000174a00011409800c9
:101bc4002c003700f09120009040780000c8b3004a
:101bd40000c060000004e0000f00320010c0b30039
:101be40009e8b70015c8bf000004a2000004e00023
:101bf4000100320064ff07001468ef001368ef006f
:101c040012c8bf000004a2000004e0001900320062
:101c140022ff07001700370020c0b30009e8b7000f
:101c24003040800081c0b30001487800304080001b
:101c3400f1912000110098003040800041c0b300b1
:101c44001140980030408000314080009140900065
:101c54000174a000114098001468ef001368ef00ad
:101c640012c8bf000004a2000004e000010032001a
:101c74000aff07000080fa00000006000200fa00d4
:101c840080c0b300004f780080488000e70f500008
:101c94000d003e0080488000004f780008c8bf0057
:101ca4000004e00003003a0010c0b30008e8b700e5
:101cb4000500370008c8bf00e14f500002003a0099
:101cc40020c0b30008e8b700814880001e80fb00f4
:101cd4000080500080488800304880001e4878000a
:101ce40070922000504088007048800061006000bd
:101cf4000000e00017003a0009003700514080005e
:101d04006048800010417800824878008100e80033
:101d1400514088000000e800604888001e4fe90038
:101d24001e4078000004e000f4ff3a000c00370085
:101d3400514080006048800010417800824878005b
:101d44008100e800514088000000e80060488800f5
:101d54001e4fe9001e4078000004e000f4ff3a0042
:101d64000080fa00000006000200fa002040800013
:101d7400104f78009e80fb00509120001080fb00e3
:101d8400629120001281fb004811dd000200700006
:101d9400808f500007003600509120001080fb0017
:101da400619120009180fb00c808dd0001007000f3
:101db400004f7800509120001080fb0061912000ba
:101dc4009180fb00c808dd000100700080007800ed
:101dd4001e80fb0000805000f10f20000101600014
:101de4005191200091417800e0c1610002c171006d
:101df40082487800c800de0060912000104178001d
:101e04006041610081407100014878000040eb00ae
:101e1400104798001c003700209120001080fb0020
:101e2400319120009180fb00c808dd0001007000a2
:101e34009e4090008180fb0072922000e2c07800f6
:101e4400014878000000e800f10f20000101600063
:101e54002191200091417800e0c1610002c171002c
:101e640082487800c800de003091200010417800dc
:101e74006041610081407100014878001e4090007b
:101e84000040e800104798001e4090009e4f50000c
:101e9400e1ff3900509120001080fb006191200087
:101ea4009180fb00c808dd00010070000000e00024
:101eb4001e0032003040800081c0b3000148780029
:101ec4003040800071922000110098002040800072
:101ed4009000780000002400008060000000e00012
:101ee40009003a003040800081c4b30011409800da
:101ef4003040800031408000914090000174a00087
:101f0400114098002f0037003040800081c0b3009a
:101f14001140980030408000314080009140900092
:101f24000174a00011409800260037003040800062
:101f340081c0b3000148780030408000f191200056
:101f4400110098003040800041c0b3001140980057
:101f54003040800031408000914090000174a00026
:101f640011409800709120001080fb0081912000a6
:101f74009180fb00c808dd00010070000000e00053
:101f840007003200709120001080fb008191200036
:101f94009180fb00c808dd00010070000000010012
:101fa40040912000904078000174a100014878001d
:101fb40012c8bf000004a2000004e00001003200c7
:101fc40036fe07000080fa00000006000200fa0056
:101fd400704880000070a000704888004200200013
:101fe4008000eb00c04a20005afb070002032000d7
:101ff4008000eb0000a0200056fb07009424a800fa
:102004000040eb00004f7800090037001e80fb0001
:10201400919120000041eb00827078001e80fb004b
:10202400c19120000041eb00827078001e4fe8004f
:102034001e407800e24f5000f4ff360022002000da
:102044008000eb00e08f200042fb07009424a900ed
:1020540080a020003048880000a020002040880094
:10206400204080003040880010922000104078000a
:1020740002e8b70002c8bf000004e00003003a0011
:1020840000012000004088000600370012002000f4
:102094002180200010002000db090700000220003e
:1020a400004088000080fa00000006000000fa00ea
:1020b400f09120009040780000c8b30080cf500019
:1020c40047003a00e090200001ccb30001487800ba
:1020d40020922000104078000080fb00e20f5000a6
:1020e40009003200e30f500023003200e10f5000da
:1020f40037003a00a06b28006048880020012000c7
:102104008048880036003700109220001040780084
:102114000004e00014003a001092200010407800ff
:102124000080fb000000400080007800207628003a
:1021340000804000100078006048880060488000fb
:102144000080e80090407800009120000148780069
:1021540060488000630040009040780010912000a7
:10216400014878001e003700e09020008040eb001a
:10217400014878001a0037001092200010407800bf
:10218400e24f50000e003e001092200010407800f4
:102194000080fb00000040008000780040762800aa
:1021a400008040001000780060488800604880008b
:1021b400104078000080fb00804888000800370049
:1021c400e09020008040eb000148780004003700d4
:1021d400e09020008040eb000148780000000000ff
:1021e4000080fa00000006000200fa00709220004d
:1021f4008040eb0001487800809220008040eb0092
:1022040001487800f0912000904078007fc0600081
:102214000080fb00e10f500011003200e20f50007b
:10222400130032000000e00040003a0070488000d3
:102234000070a000704888000cc8bf000004e000d3
:102244003500320070922000104078008040780001
:102254000114a00070922000014878003300370078
:10226400704880000070a000704888002f0037007c
:10227400704880000070a0007048880030922000f0
:102284009040780000c8b30000c060000004e00083
:1022940009003a0030922000904078006fc060003e
:1022a4000080fb008000400000902000008040007f
:1022b400100f78000800370030922000904078001a
:1022c4006fc060000080fb00800040006090200030
:1022d40000804000100f78001e0078009000780005
:1022e40000002800008060000000e0000c003200c4
:1022f4001e007800900078000040200000806000fc
:102304000000e000080032007092200011c0b30009
:102314000148780005003700000000000300370082
:102324000000000001003700000000007148800038
:1023340000082000008060000000e0000800320077
:102344007092200060488800704880000000a0005f
:10235400704888000091200021c0b3000148780033
:102364000080fa00000006000000fa0050258000fa
:10237400620060000000e000130032002040800092
:102384009040900000c8b30080cf50000d003a0088
:10239400304880009040900040c8b30080cf500087
:1023a40008003a0020408000c1c0b30011409800ea
:1023b4002040800021408000914090000174a000e2
:1023c40011409800aa24a900000820005024880085
:1023d4000080fa00000006000000fa008284a800d1
:1023e400000120005024880010c0b3000de8b7009d
:1023f4001c68ef000001eb008000eb005007200098
:10240400010907000080fa00000006000000fa003d
:102414000d68ef000001eb008000eb004007200096
:10242400f90807008284a900000120000024880024
:102434001c68ef000080fa00000006000000fa00ab
:10244400d0c2b30011e8b7000ec8bf000080fb0083
:102454000020a1000000e0001f003a000ec8bf00e9
:102464000080fb004200de00004078000080fb009a
:10247400c200dd0000a02000008040002040880051
:102484002040800030408800304080000020a200be
:1024940030408800204080009000780000c0230075
:1024a4008080600000402300808f500008003a00c4
:1024b40020408000100090008200200080007800fe
:1024c400f09120001cfa07000b00070008003700f9
:1024d4003d000700060037000ec8bf000080fb0067
:1024e4000020a100e80f500001003a00530007004b
:1024f4000080fa00000006000000fa000868ef00ff
:102504001268ef001568ef001668ef001068ef001e
:102514000968ef0030488000314880009140900005
:102524000174a10011409800304880000020a200ee
:102534003048880030488000314880009140900045
:102544000174a10011409800304880000020a200ce
:102554003048880030408000314080009140900035
:102564000174a10011409800e09020008040eb002d
:10257400014878000000eb0080488800409120006a
:102584008040eb0001487800509120009040780092
:10259400e0c060000148780060912000904078001d
:1025a400e0c0600001487800820007000001eb00f1
:1025b4008000eb00300020009308070053fd070063
:1025c4000080fa00000006000000fa0009c8bf00fd
:1025d400e24f500002003a00e3fd07001500370007
:1025e4000968ef0010c8bf000004a2000004e00066
:1025f4000f0032003040800081c0b30001487800f1
:1026040030408000f191200011009800304080009b
:10261400c1c0b300114098003040800031408000b8
:10262400914090000174a00011409800010037000f
:102634001068ef000080fa00000006000200fa00b3
:1026440030488000100078004e00de0061406000d9
:10265400004f7800304880000020a20030488800f5
:1026640000408000e80f50000e003a001092200055
:10267400104078008080fb00f0072000008060009c
:10268400b0248800b02480000000e0000300320081
:1026940000012000004088000200370040002000b4
:1026a4000040880009c8bf00e14f500025003a00ef
:1026b4003048800071922000110098006ffd0700df
:1026c40008c8bf00e24f500009003a0030488000bb
:1026d40041c0b30011409800304880003148800068
:1026e400914090000174a000114098002f00370021
:1026f4001e4078000004e00009003a0030488000e1
:1027040081c4b300114098003048800031488000f3
:10271400914090000174a0001140980023003700fc
:102724003048800081c0b3001140980030488000d8
:1027340031488000914090000174a000114098003d
:102744001a003700409120009040780000c8b30080
:1027540000c060000004e00013003200709120000b
:102764001080fb00819120009180fb00c808dd00ef
:10277400010070000000e0000700320070912000aa
:102784001080fb00819120009180fb00c808dd00cf
:10279400010070000000010040912000904078008a
:1027a4000174a100014878000968ef000080fa0074
:1027b400000006000000fa00f091200010407800ac
:1027c4000046b2000004e00050003a0000922000ed
:1027d400104078000080fb00cf80de00b2002000b3
:1027e40003002000820f5000838f580049003e00f0
:1027f4000060010021003700220037004700370045
:102804002000370045003700060037000b00370072
:10281400390037000d0037000a0037001b0037006d
:102824002a003700704880000070a00070488800bb
:102834008000200000408800390037001bfe07009c
:1028440037003700e1fd0700350037002080200005
:1028540060488800704880000000a000704888002c
:102864000091200011c0b300014878007048800036
:102874000070a00070488800290037005afe070045
:102884002700370028000700250037003092200079
:10289400104078008080fb00e08f20000080400022
:1028a40060488800704880000000a00070488800dc
:1028b4000091200011c0b3000148780070488000e6
:1028c4000070a00070488800150037007048800030
:1028d4000070a000704888003092200010407800fa
:1028e4000080fb001192200011417800e18f20004c
:1028f400827078000a0037000001eb008000eb00d2
:1029040020002000c0070700050037000000000079
:102914000300370000000000010037000000000041
:102924000080fa00000006000600fa001092200061
:1029340010407800e14f500010003a00f091200060
:10294400104078007f4060000004e0000b003a0073
:10295400704880000070a000704888000092200039
:1029640010407800e34f500003003a0010c0b30059
:102974000ce8b700010037000c68ef00109220004b
:10298400104078000004e000f5003a00f0912000c7
:10299400104078007f406000e24f5000f0003a00a1
:1029a40030922000104078006f4060000004e00086
:1029b400eb00320030922000904078006fc060003d
:1029c4000080fb00e20f5000e5003c000140800065
:1029d40000022000808f5000e1003a00704880001f
:1029e4000070a00070488800309220009040780069
:1029f40000c8b30000c060000004e00010003a000a
:102a040030922000104178006f4061000080fb008c
:102a1400800040000090200000804000100f7800eb
:102a240030922000904078006fc060000080fb006e
:102a3400c191200061407800404798000f003700a2
:102a440030922000104178006f4061000080fb004c
:102a5400800040006090200000804000100f78004b
:102a640030922000904078006fc060000080fb002e
:102a74009191200061407800404798004e409000ba
:102a8400614060000004e00004003a001e00780089
:102a94000020a100000f7800030037001e0078001a
:102aa4000020a000000f78003092200090407800b1
:102ab40000c8b30000c060000004e0000a003a004f
:102ac40030922000104178006f4061000080fb00cc
:102ad4009e007800000140000090200000004100aa
:102ae40001087800090037003092200090407800f7
:102af4006fc060000080fb009e0078000001400071
:102b0400609020000000410001087800009220003d
:102b140010407800e34f50002c003a001e0078006b
:102b24009000780000002800008060000000e000b1
:102b340019003200309220009040780000c8b300a1
:102b440000c060000004e0000a003a003092200057
:102b5400104178006f4061008080fb00c09120002c
:102b640000804000904078000114a00001487800e3
:102b74000900370030922000904078006fc0600058
:102b84008080fb00909120000080400090407800fd
:102b94000114a000014878001e0078001040900045
:102ba400804078000124a0001e00780011409800a5
:102bb4001e00780010409000804078000174a0004e
:102bc4001e00780011409800650037001e00780050
:102bd4000020a200000f78001e007800900078000a
:102be40000002800008060000000e00011003200b6
:102bf4001e00780010409000804078000174a1000d
:102c04001e007800114098001e00780010409000cb
:102c1400804078000164a0001e00780011409800f4
:102c2400220020009e00780050002000f6060700d5
:102c3400060037001e0078001040900080407800a5
:102c44000164a0001e007800114098001e00780066
:102c54000020a200000f78004e4090006240600007
:102c64000004e00006003a001e007800900078009e
:102c740000002800008060000000e0002400320012
:102c8400309220009040780000c8b30000c060007b
:102c94000004e0000a003a0030922000104178005d
:102ca4006f4061008080fb00c091200000804000e4
:102cb400904078000114a100014878000900370011
:102cc40030922000904078006fc060008080fb004c
:102cd4009091200000804000904078000114a100f1
:102ce400014878001e00780010409000b2c3b30081
:102cf400824060001e0078001140980022002000ed
:102d04009e00780050002000bf0607000600370030
:102d14001e00780010409000b2c3b30082406000ef
:102d24001e00780011409800a14a20003092200033
:102d3400104178006f4061000080fb0000004000fb
:102d440000804000100798001e009000104078009a
:102d5400804078000114a1001e0090000148780012
:102d64000080fa00000006000000fa00c040800065
:102d7400d140800061004000e0804800c0408800ed
:102d8400d14088000dc8bf000004a2000004e00088
:102d9400080032001cc8bf000040e8001ce8b7006f
:102da4001cc8bf000004e00002003a0000c0eb00b1
:102db4001ce8b7000080fa00000006000400fa00d6
:102dc400c2408000d3408000028fbe00c04080001b
:102dd400d14080001e01be00800f5100818f590038
:102de400f7ff3a001e00be000080fa000000060053
:102df4000000fa00f0912000104078007f4060004d
:102e0400e14f500078003a00f09120001040780023
:102e140002c6b3008240600000c2b30080cf5000fd
:102e240073003a0030922000104078000004e00063
:102e3400040032003092200010407800e14f50002e
:102e44006d003a0000922000104078000080fb00e2
:102e540001022000810f50002000320001022000f6
:102e6400810f500005003c000000e0000a00320021
:102e7400e10f5000130032006000370011022000ff
:102e8400810f50004300320021022000810f5000c6
:102e94004800320059003700608f200060488800e5
:102ea4008000200080488800704880000000a00056
:102eb40070488800704880000070a0007048880046
:102ec4004e003700608f2000604888007048800002
:102ed4000070a0007048880048003700509220001d
:102ee4001080fb00619220009180fb00c808dd0087
:102ef40001007000f10f20000101600051912000d9
:102f040091417800e0c1610002c1710082487800fb
:102f1400c800de006091200010417800604161002b
:102f24008140710001487800408e2000f10f20009c
:102f3400010160002191200091417800e0c161000d
:102f440002c1710082487800c800de003091200080
:102f540010417800604161008140710001487800af
:102f64007091200090407800e0c060000148780033
:102f74008091200090407800e0c060000148780013
:102f840040912000904078000174a000014878002e
:102f94001a003700408e200060488800700020002e
:102fa40080488800e090200011ccb30001487800ec
:102fb40012003700109220001080fb0021922000a4
:102fc4009180fb00c808dd0001007000004078001b
:102fd40042e8b700704880000070a0007048880084
:102fe4000000000005003700000000000300370067
:102ff4000000000001003700000000000080fa001b
:10300400000006000000fa0000b0240001002000c7
:103014002047880031478800808e20008040eb00e4
:1030240001487800908e20008040eb000148780031
:10303400a08e200081c0b300014878003668ef00fc
:1030440051c1b30010c0b300ddf80700d1c1b30013
:1030540020c0b300daf8070003c4b300428a20009a
:103064008040eb0020c0b300f2f80700f041880074
:103074004028ef003768ef000080fa0000000600e7
:103084000600fa00000f7800110798002207980044
:103094001e007800e50f500012003a00f041800055
:1030a4009e009000808f500006003a0003c4b300d5
:1030b400428a20008040eb0020c0b300ddf8070006
:1030c400f0418800004280009e009000808f5000f4
:1030d40002003a003768ef003c68ef0010c0b3000c
:1030e400010037000040eb000080fa0000000600f9
:1030f4000400fa00000f7800214798003668ef00ba
:10310400f04180000000e00006003200f041800041
:103114009000780000002800008060000000e000bb
:1031240021003a00f0418000904078002e40900049
:1031340080cf500003003100f041800090407800bf
:10314400214798003668ef000c00370036c8bf00ee
:103154000080fb001e004000618320009140780045
:103164008180fb00428a2000e2c078000148780098
:1031740036c8bf000040e80036e8b700618320008d
:10318400914078002e40900080cf5000efff39002e
:1031940003c4b300428a20008040eb0020c0b30087
:1031a400a4f80700f041880036c8bf000080fa0088
:1031b400000006000400fa00000f78002147980080
:1031c4009ec0a90037c8bf000004e00009003a000f
:1031d4009e007800c1418800ae409000c283200068
:1031e4000149780010c0b3003de8b70010c0b30037
:1031f40037e8b7009ec0a8000080fa00000006006f
:103204000600fa00200798009ec0a90037c8bf0036
:103214000004e000020032009ec0a8001f00370036
:103224000040eb00004f7800ae00900011079800ba
:103234001e4fe8001e407800e14f40000c003200b1
:103244001e009000104078000080fb000000ea009f
:103254004f00de00004078009e0090008100e800ee
:10326400110798000004e000f1ff3a000100370064
:10327400000000002e009000c04188009e407800ad
:10328400c28320000149780010c0b3003de8b700b4
:1032940010c0b30037e8b7009ec0a8000080fa0051
:1032a400000006000600fa00200798009ec0a9004e
:1032b40037c8bf000004e000020032009ec0a8002e
:1032c4001e0037000040eb00004f7800ae00900075
:1032d400110798001e4fe8001e407800e14f40009f
:1032e4000c0032001e009000104078000080fb00ab
:1032f4000000ea004f00de00004078009e009000cd
:103304008100e800110798000004e000f1ff3a0092
:1033140001003700000000002e009000c04188002a
:103324009e407800c2832000014978003d68ef0088
:1033340010c0b30037e8b7009ec0a8000080fa00b0
:10334400000006000200fa009ec0a90000428000ae
:103354000000e00008003200004280009000780085
:1033640000002800008060000000e000020032003d
:103374009ec0a8006200370037c8bf00e34f50006a
:1033840001003a003768ef0037c8bf000004e000ce
:1033940002003a009ec0a8005900370037c8bf0099
:1033a400e24f500009003a008041eb000001eb00bd
:1033b40011c0b30020c0b3001ef80700004288000b
:1033c40030c0b30037e8b7004c00370037c8bf003f
:1033d400e14f500049003a00c18320009140780039
:1033e40000c4b30080cf50000300360000c4b30013
:1033f400004f780003003700c1832000914078001b
:10340400014f78003cc8bf001e4050003ce8b700a4
:1034140040862000d04188009e40780011479800e3
:103424003dc8bf000004e0001f003a000d00370053
:10343400d0418000c141800091407800014878006b
:10344400d04180000000e800d0418800c0418000e5
:103454000000e800c04188001e4090000040e900e0
:10346400104798001e4090000004e000f0ff3a006e
:1034740010003700d0418000c141800091407800a5
:1034840001487800d04180000000e800d041880065
:10349400c04180000000e800c04188001e40900048
:1034a4000040e900104798001e4090000004e0002e
:1034b400f0ff3a003cc8bf000004e00009003a00f5
:1034c40000c4b3009e40780080cf500003003a004f
:1034d40020c0b30037e8b7000200370030c0b300a3
:1034e40037e8b7009e4178004286200011c0b3003f
:1034f40020c0b300cff70700004288009ec0a80098
:103504000080fa00000006000000fa00a600070090
:103514000cc8bf000004e000010032000dc8bf0069
:103524000040fe0051248000000220000080600062
:103534000000e00002003a0010c0b30041000700a0
:10354400d200070010c0b3000080fa00000006009b
:103554000000fa000cc8bf000004e000360032008e
:103564000dc8bf000004e000330032004024800096
:10357400620060000000e000010032008824a9001d
:1035840075000700000420000024880000000000eb
:103594000124800000042000008060000000e0009e
:1035a400fbff32000004200000248800000000001b
:1035b4000124800000042000008060000000e0007e
:1035c400fbff3200000420000024880000000000fb
:1035d4000124800000042000008060000000e0005e
:1035e400fbff32009444a80000042000002488005b
:1035f400000000000124800000042000008060001e
:103604000000e000fbff32000004200000248800da
:1036140000000000012480000004200000806000fd
:103624000000e000fbff32009444a90057000700ab
:1036340010c0b300010037000040eb000080fa0026
:10364400000006000400fa0020479800402480008f
:10365400610060000000e0000b00320040248000a4
:10366400620060000000e00007003a001cc8bf00d0
:10367400e34f500004003600202480004300de00a5
:1036840061406000320037002e4090000004e000ea
:103694001d0032008824a9008804a8002e00070019
:1036a4000040eb00004f78000900370000042000c0
:1036b4000024880000000000012480000004200091
:1036c400008060000000e000fbff32001e4fe800b5
:1036d4001e407800e44f5000f4ff36000040eb0039
:1036e4001047980020248000680060000000e0007b
:1036f4000200320010c0b3001047980023000700f6
:103704001e409000120037004024800061006000d9
:103714000000e00002003a0000c0eb000c0037009b
:1037240040248000620060000000e00002003a00d3
:10373400e0cfb300060037001cc8bf00e34f5000c1
:1037440002003e00d0cfb30001003700c0cfb30069
:103754000080fa00000006000000fa005a68ef003a
:103764001000fc00f10480000004200000806000d0
:103774000000e0000200320010c0b3005ae8b700b5
:103784009ec0a9000080fa00000006000000fa00b4
:103794005ac8bf000004e000010032009ec0a80027
:1037a4000080fa00000006000400fa001e00fc007d
:1037b40011028000000e200000806000904288000a
:1037c40011028000000e2000010070001002880029
:1037d40040092000100798000000eb00000f78005b
:1037e4000e0037001e009000900078001e00780044
:1037f40000014000209620000000410001087800ec
:103804001e0090008000eb00010878001e0090006c
:103814000080e800100798001e0fe8001e007800e2
:10382400e60f5000efff360060248000a0428800bd
:103834008c24ef0010248000b04288008224ef0022
:10384400700680004800de00674060000080fb00d6
:10385400c0428800000120000024880000022000eb
:10386400502488008ec0a9008284a80071068000bc
:10387400f08f2f000080600000a0a0007006880078
:103884009ec0a8000080fa00000006000400fa00b0
:1038940040092000100798000000eb00000f78009a
:1038a4000b0037001e0078008000400020962000a6
:1038b40000804000900078001e009000010878000d
:1038c4001e0090000080e800100798001e0fe8001a
:1038d4001e007800e60f5000f2ff3600a042800080
:1038e40060248800b042800010248800c042800018
:1038f40000407800674060000080fb0067006000c3
:103904004800dd0072068000f18f2f008100610005
:10391400010070007006880011028000f0f12f0091
:103924008080600090428000010070009042880016
:1039340090428000100288000080fa000000060017
:103944000000fa00808420000080fa0000000600d5
:103954000000fa00c08420000080fa000000060085
:103964000000fa00404280004800de00e1406000b0
:10397400501680004c00de006140600080cf500093
:103984001600320051168000000021000080600003
:103994000000e000110032005116800000002200f7
:1039a4000080600000f0a7000000ea000000e900c9
:1039b4004f00de00004078000080fb0061006000e2
:1039c4004900dd00414280000190a1000100700027
:1039d400404288005008a8004e0037004042800052
:1039e4004a00de00e1406000501680004e00de0018
:1039f4006140600080cf500011003a0051168000f1
:103a0400000024000080600000f0a7000000ea002d
:103a14000000e9004f00de00004078000080fb0059
:103a2400610060004a00dd004142800001a0a10065
:103a340001007000404288005028a800350037007b
:103a4400604280004800de00e140600050168000c3
:103a54004f00de000040780080cf50001500320097
:103a64005116800000002800008060000000e00083
:103a740010003200501780007000600000f0a700b2
:103a84000000ea000000e9004f00de00004078007a
:103a94000080fb00610060004900dd00614280009d
:103aa4000190a10001007000604288005048a80005
:103ab40018003700604280004a00de00e1406000e8
:103ac400501780004500de006140600080cf500048
:103ad40010003a00511780000002200000806000ae
:103ae40000f0a7000000ea000000e9004f00de003b
:103af400004078000080fb00610060004a00dd00a7
:103b04006142800001a0a1000100700060428800b1
:103b14005068a800501680004c00de006140600030
:103b24000080fb00610060004800dd00414280002d
:103b34000180a100010070004042880050168000fe
:103b44004f00de00004078000080fb006100600050
:103b54004800dd00614280000180a1000100700086
:103b6400604288000080fa00000006000000fa00ad
:103b740020cb2100e4020700501680004c00de0038
:103b8400614060000080fb00610060004800dd00cf
:103b9400414280000180a100010070004042880081
:103ba40051168000000024000080600000f0a7008f
:103bb4000000ea000000e9004f00de000040780049
:103bc4000080fb00610060004a00dd00414280008b
:103bd40001a0a1000100700040428800501680003e
:103be4004f00de00004078000080fb0061006000b0
:103bf4004800dd00614280000180a10001007000e6
:103c0400604288005117800000022000008060009c
:103c140000f0a7000000ea000000e9004f00de0009
:103c2400004078000080fb00610060004a00dd0075
:103c34006142800001a0a100010070006042880080
:103c4400020007000080fa00000006000000fa00ed
:103c540050c8bf00614060000004e0000200320070
:103c6400808420001400070050c8bf006440600036
:103c74000004e00002003200c08420000e000700af
:103c84000080fa00000006000000fa005008a900b5
:103c94005028a9005048a9005068a9000080fa00e3
:103ca400000006000000fa004a28ef004e28ef004a
:103cb4000080fa00000006000200fa00000f7800fd
:103cc4001e00780090007800002020000080600032
:103cd4000000e000060032001e0078001000900092
:103ce4008000e8001e0078001100980005003700ed
:103cf4001e007800100090008000e9001e0078008b
:103d0400110098001e0078009e0078001141900078
:103d1400024878000080fa00000006000000fa0063
:103d2400e08120000195200011009800e08120002e
:103d34000195200001087800e0812000a000900097
:103d44000110a00021009800e0812000a000900054
:103d54000100a10021009800e08120008040eb00d8
:103d640061409800300120002010880000002800e5
:103d7400301088000822ef008620a9009620a800b1
:103d84000080fa00000006000200fa00e081200032
:103d9400e0409000014f78001e4078000080fa0057
:103da400000006000000fa00504180006600400058
:103db4005041880028c8bf000040e90028e8b70047
:103dc40028c8bf000004e00003003a0050002000af
:103dd4003041880002003700200020003041880074
:103de4000080fa00000006000200fa00000f7800cc
:103df4000642a80060418000200090000000e0001e
:103e04000300320060418000200090001e0878000a
:103e14002628ef000080fa00000006000800fa00df
:103e2400000f780021479800220798003307980074
:103e3400e081200020009000610060000000e000ac
:103e44000a003a00ae0190002e4190009e007800d6
:103e5400c0952000770007003e019000c195200026
:103e640010c0b3001f000700030037003e0090009d
:103e74008000eb00010878000080fa0000000600d2
:103e84000800fa00000f78002147980022079800e4
:103e940033079800e081200020009000610060005a
:103ea4000000e0000a003a00ae0190002e419000ac
:103eb4009e00780060952000460007003e019000b7
:103ec4006195200010c0b30006000700030037000e
:103ed4003e0090008000eb00010878000080fa00aa
:103ee400000006000600fa00004f78001107980051
:103ef40022079800e081200020009000610060000b
:103f04000000e0002e003a002e0090001100200076
:103f140001087800e0812000100078009e009000e5
:103f240011009800e0812000100078001e487800fd
:103f3400e081200010007800ae009000210098007d
:103f4400e081200010007800e6004000e0812000bd
:103f540001087800e081200090007800609520003e
:103f6400808f500003003a00e0812000019520007a
:103f740001087800e0812000a00090000110a10059
:103f840021009800e081200090009000e081200052
:103f940010007800808f500004003a00e081200077
:103fa400a00090000100a000210098003041800092
:103fb4000000e00005003a008620a8000300370056
:103fc4002e0090008000eb00010878000080fa00c9
:103fd400000006000800fa00000f7800110798009e
:103fe40042479800330798003e00900000004000cc
:103ff400800078001e007800010878001e00780018
:1040040010007800800078000100a0001e007800f5
:10401400010878001e007800ce40900021409800ee
:104024001e0078009e009000210098000080fa0095
:10403400000006000800fa00000f7800110798003d
:1040440042479800330798003e009000000040006b
:10405400800078001e007800010878001e007800b7
:10406400ce409000214098001e0078009e009000f1
:10407400210098000080fa00000006000000fa0009
:10408400e0812000200090006200600000f0a700a2
:104094000000ea000000ea004f00de000040780063
:1040a4000080fa00000006000000fa00e081200011
:1040b400200090006100600000f0a7000000ea000a
:1040c4000000ea004f00de00004078000080fa00a3
:1040d400000006000000fa000042200010128800d0
:1040e4001000200020128800c00028000012880060
:1040f4000080fa00000006000400fa00000f7800b7
:1041040011079800000000000012800062006000a7
:104114000000e000fcff3a001e0078001000780068
:1041240040128800000000000112800000022000fc
:10413400008060000000e000fbff3a001e009000d9
:1041440041128000010878000080fa000000060097
:104154001800fa00100f9800210f9800320f9800f1
:104164000000eb00000f78000000eb00100798003f
:104174000000eb00700798000000eb00000f9800af
:1041840020002000600798002e0890000000d10055
:10419400200f98001e0890000000e00005003a007f
:1041a4000000eb00500798007000470020079800bb
:1041b40004003700ee009000510798009e0890001c
:1041c400210798003e0890000000e00005003a0036
:1041d4000000eb00400798006e004700300798008d
:1041e40005003700ee00900041079800be089000db
:1041f4003107980000000000001280006200600097
:104204000000e000fcff3a001b00370000128000b1
:10421400620060000000e00008003a002e009000f8
:104224001000780040128800ae0090005e009000fc
:1042340000804000200798001e0fe8000112800053
:1042440000022000008060000000e0000a003a0044
:104254003e0090004112800001087800be009000ea
:104264004e00900000804000300798001e0090002f
:104274000000e800100798002e0890009e007800c7
:10428400808f5000e1ff39000f00370001128000d9
:1042940000022000008060000000e0000a003a00f4
:1042a4003e0090004112800001087800be0090009a
:1042b4004e00900000804000300798001e009000df
:1042c4000000e800100798009e0090002e0890005f
:1042d400808f5000edff39001e0078000080fa0046
:1042e400000006000400fa00100798008e00780011
:1042f4000e80e80080ff07001e0078000080fa00ae
:10430400000006000600fa00000f7800110798006c
:1043140022079800ae0090001e007800010178008a
:104324009e0090008aff07000080fa00000006004b
:104334000000fa001112800000402000008060009c
:104344000000e00002003a000000eb00010037002a
:10435400100020000080fa00000006000000fa00af
:10436400001280000080fa00000006000000fa003d
:104374000021ef00f07c20001008880000002800d5
:1043840020088800004380000000e00002003a009a
:1043940000212200240007008460a9009460a80082
:1043a400009720008040eb00014878000080fa006c
:1043b400000006000200fa00000f78009e0078005a
:1043c40011088800009720008040eb000148780025
:1043d4000080fa00000006000000fa0010088000c7
:1043e4000080fa00000006000200fa00000f7800c6
:1043f4009e00780001088800009720008040eb00b0
:10440400014878000080fa00000006000000fa006d
:10441400000880000080fa00000006000000fa0096
:104424000080fa00000006000200fa00000f780085
:104434009460a9009e007800014388009460a8005d
:104444000080fa00000006000000fa000097200037
:104454008040eb00014878009460a80005e1a800c2
:104464000080fa00000006000000fa0005e1a9003f
:104474009460a9000080fa00000006000200fa001f
:1044840000972000104f78001e4078000004e000e0
:1044940003003200009720008040eb0001487800c0
:1044a4001e4078000080fa00000006000000fa00b8
:1044b40010972000104078000080fb000080fa0074
:1044c400000006000000fa00109720008040eb0076
:1044d400014878000080fa00000006000600fa0097
:1044e400000f780011079800424798000000000070
:1044f40010438000e10f5000fdff32001000200047
:1045040010438800238620001e017800ce409000ce
:104514001e00900041fe07000080fa000000060023
:104524000600fa00000f780011079800424798002f
:104534000000000010438000e10f5000fdff320036
:10454400238620001e017800ce4090001e009000bb
:104554004bfe07000080fa00000006000e00fa007f
:1045640060002000104388000040eb0010479800d2
:1045740030c3b300204798000040eb003047980058
:10458400c0c0b300404798000040eb00504798007b
:104594000040eb0060479800c4ff0700004f78001c
:1045a40000000000c1ff07009e80fb0001005000d6
:1045b4000000e000fbff3400e800470002000900af
:1045c4008018eb00f00f20004007980068004700b7
:1045d400228620008000780010c0b30041fe07004e
:1045e4000e00e80022c0b30080007800d003200051
:1045f400baff07000000000010438000e10f5000e4
:10460400fdff3a000080fa00000006000000fa00f6
:104614000080fa00000006000000fa00cc22ef003f
:10462400d422ef00dc22ef00e422ef00ec22ef00c2
:10463400f422ef00f00f2f00401688000000210044
:1046440080168800f0fd2000c0168800f00f2000be
:1046540000178800b00b200040178800c03c2000e1
:10466400801788005620ef005820ef005a20ef00f2
:104674005c20ef005e20ef006020ef006e20ef0072
:104684007020ef007220ef007420ef007620ef001e
:104694007820ef00ce22ef00d622ef00de22ef00da
:1046a400e622ef00ee22ef00f622ef00f0032000f6
:1046b40010278800f09d2f0030278800000f20006d
:1046c400402788009008200050278800003c2000e4
:1046d400602788006380a8006440a80065c0a80023
:1046e4006600a80000382200070007008660a900c1
:1046f4009660a8000080fa00000006000000fa009e
:104704000080fa00000006000200fa00000f7800a2
:104714009660a9009e007800e14288009660a80097
:104724000080fa00000006000200fa00000f780082
:104734001e007800f4ff07000080fa000000060065
:020000040000fa
:104744005c08000002000000800000003009000046
:1047540020000000800000005e080000020000004d
:1047640082000000ffff000070090000020000004a
:1047740080000000600800000200000080000000cb
:104784005009000012000000800000001e08000014
:104794001800000080000000480800000a00000023
:1047a4008000000062080000020000008000000099
:1047b400620900000e0000008000000052080000a2
:1047c4000a00000080000000fe0800003200000023
:1047d40080000000000800001e00000080000000af
:1047e400000a00003000000080000000640800009f
:1047f4009a0000008000000036080000120000004b
:0848040080000000000000002c
:020000040000fa
:10480c000600fa00000f78001107980022079800a4
:10481c001e00780021072000810f50001800320084
:10482c0021072000810f50000a003c00e20f5000cd
:10483c0015003200e20f500003003c00e10f500065
:10484c000b00320015003700e30f50000a00320055
:10485c001200370041072000810f50000c0032007d
:10486c0041072000810f50000b0035000b00370072
:10487c00e2f90700090037005bf907000700370071
:10488c0000000000050037000000000003003700a6
:10489c0000000000010037000000000010c0b30051
:1048ac000080fa00000006000000fa00001023004f
:1048bc00303a88004827ef004e27ef007027ef00b2
:1048cc007227ef007427ef007627ef007827ef00b0
:1048dc007a27ef007c27ef001200200080072000d1
:1048ec00a1092000337420008049780081497800a8
:1048fc00824978001200200060042000710520001d
:10490c00237420008049780081497800824978001e
:10491c0000000000103a8000610060000000e00020
:10492c00fcff3a0000000000113a80000002200059
:10493c00008060000000e000fbff32000080fa0005
:10494c00000006000000fa0041058000f08f2f00e7
:10495c00008060000080a000400588007106800087
:10496c00f08f2f00008060000080a000700688008f
:10497c0061058000f0f82f00008060000040a0006e
:10498c00600588006105800080ff2f0000806000ba
:10499c000000a0006005880061058000f0ff280081
:1049ac000080600000c0a000600588002105800028
:1049bc00f0ff28000080600000c0a00020058800e7
:1049cc000080fa00000006000800fa001c00070036
:1049dc0064fc0700dffe07003bf10700d6fb070075
:1049ec00000f7800d8fb0700100798006000b80093
:1049fc002007980031079800dca2a90091fc070061
:104a0c009ffc0700dca2a8000140fe00faff370063
:104a1c000200fa00000f78009e007800f142880036
:104a2c00ffff37000000fa00009320008007780099
:104a3c0080942000000188000080fa00000006002d
:104a4c000000fa00f2fe070097ff0700bdff070009
:104a5c001df1070075f307009cfd0700adfc070076
:0c4a6c0040fe07000080fa000000060079
:020000040000fa
:020000040002f8
:04aff000ff830000db
:020000040000fa
:020000040002f8
:04aff400fffe00005c
:020000040000fa
:020000040002f8
:04aff8001f600000d6
:020000040000fa
:020000040002f8
:04affc003f3e0000d4
:00000001FF
